{
  "abi": [
    {
      "inputs": [
        {
          "internalType": "address",
          "name": "_admin",
          "type": "address"
        }
      ],
      "stateMutability": "nonpayable",
      "type": "constructor"
    },
    {
      "anonymous": false,
      "inputs": [
        {
          "indexed": true,
          "internalType": "address",
          "name": "account",
          "type": "address"
        },
        {
          "indexed": false,
          "internalType": "uint256",
          "name": "timestamp",
          "type": "uint256"
        }
      ],
      "name": "AllocationsSet",
      "type": "event"
    },
    {
      "anonymous": false,
      "inputs": [
        {
          "indexed": false,
          "internalType": "uint256",
          "name": "timestamp",
          "type": "uint256"
        }
      ],
      "name": "DistributionParametersSet",
      "type": "event"
    },
    {
      "anonymous": false,
      "inputs": [
        {
          "indexed": false,
          "internalType": "uint256",
          "name": "timestamp",
          "type": "uint256"
        }
      ],
      "name": "DistributionRoundSet",
      "type": "event"
    },
    {
      "anonymous": false,
      "inputs": [
        {
          "indexed": false,
          "internalType": "uint256",
          "name": "amount",
          "type": "uint256"
        },
        {
          "indexed": false,
          "internalType": "uint256",
          "name": "timestamp",
          "type": "uint256"
        }
      ],
      "name": "FeeWithdrawn",
      "type": "event"
    },
    {
      "anonymous": false,
      "inputs": [
        {
          "indexed": false,
          "internalType": "uint256",
          "name": "amount",
          "type": "uint256"
        },
        {
          "indexed": false,
          "internalType": "uint256",
          "name": "timestamp",
          "type": "uint256"
        }
      ],
      "name": "LeftoverWithdrawn",
      "type": "event"
    },
    {
      "anonymous": false,
      "inputs": [
        {
          "indexed": false,
          "internalType": "uint256",
          "name": "timestamp",
          "type": "uint256"
        }
      ],
      "name": "MultipleParticipationCompleted",
      "type": "event"
    },
    {
      "anonymous": false,
      "inputs": [
        {
          "indexed": false,
          "internalType": "uint256",
          "name": "timestamp",
          "type": "uint256"
        }
      ],
      "name": "MultipleRegistrationCompleted",
      "type": "event"
    },
    {
      "anonymous": false,
      "inputs": [
        {
          "indexed": false,
          "internalType": "uint256",
          "name": "amount",
          "type": "uint256"
        },
        {
          "indexed": false,
          "internalType": "uint256",
          "name": "timestamp",
          "type": "uint256"
        }
      ],
      "name": "RegistrationFeeSet",
      "type": "event"
    },
    {
      "anonymous": false,
      "inputs": [
        {
          "indexed": false,
          "internalType": "uint256",
          "name": "timestamp",
          "type": "uint256"
        }
      ],
      "name": "RegistrationRoundSet",
      "type": "event"
    },
    {
      "anonymous": false,
      "inputs": [
        {
          "indexed": false,
          "internalType": "uint256",
          "name": "amount",
          "type": "uint256"
        },
        {
          "indexed": false,
          "internalType": "uint256",
          "name": "timestamp",
          "type": "uint256"
        }
      ],
      "name": "TokensDeposited",
      "type": "event"
    },
    {
      "anonymous": false,
      "inputs": [
        {
          "indexed": true,
          "internalType": "address",
          "name": "account",
          "type": "address"
        },
        {
          "indexed": false,
          "internalType": "uint256",
          "name": "amount",
          "type": "uint256"
        },
        {
          "indexed": false,
          "internalType": "uint256",
          "name": "timestamp",
          "type": "uint256"
        }
      ],
      "name": "TokensWithdrawn",
      "type": "event"
    },
    {
      "anonymous": false,
      "inputs": [
        {
          "indexed": true,
          "internalType": "address",
          "name": "account",
          "type": "address"
        },
        {
          "indexed": false,
          "internalType": "uint256",
          "name": "timestamp",
          "type": "uint256"
        }
      ],
      "name": "UserParticipated",
      "type": "event"
    },
    {
      "anonymous": false,
      "inputs": [
        {
          "indexed": true,
          "internalType": "address",
          "name": "account",
          "type": "address"
        },
        {
          "indexed": false,
          "internalType": "uint256",
          "name": "timestamp",
          "type": "uint256"
        }
      ],
      "name": "UserRegistered",
      "type": "event"
    },
    {
      "anonymous": false,
      "inputs": [
        {
          "indexed": false,
          "internalType": "uint256",
          "name": "timestamp",
          "type": "uint256"
        }
      ],
      "name": "VestingEndDateSet",
      "type": "event"
    },
    {
      "anonymous": false,
      "inputs": [
        {
          "indexed": false,
          "internalType": "uint256",
          "name": "timestamp",
          "type": "uint256"
        }
      ],
      "name": "VestingParametersSet",
      "type": "event"
    },
    {
      "inputs": [
        {
          "internalType": "address",
          "name": "",
          "type": "address"
        }
      ],
      "name": "addressToEvent",
      "outputs": [
        {
          "internalType": "uint256",
          "name": "",
          "type": "uint256"
        }
      ],
      "stateMutability": "view",
      "type": "function"
    },
    {
      "inputs": [
        {
          "internalType": "address",
          "name": "",
          "type": "address"
        }
      ],
      "name": "addressToWithdraw",
      "outputs": [
        {
          "internalType": "bool",
          "name": "",
          "type": "bool"
        }
      ],
      "stateMutability": "view",
      "type": "function"
    },
    {
      "inputs": [],
      "name": "admin",
      "outputs": [
        {
          "internalType": "address",
          "name": "",
          "type": "address"
        }
      ],
      "stateMutability": "view",
      "type": "function"
    },
    {
      "inputs": [],
      "name": "claimedUsersCount",
      "outputs": [
        {
          "internalType": "uint256",
          "name": "",
          "type": "uint256"
        }
      ],
      "stateMutability": "view",
      "type": "function"
    },
    {
      "inputs": [],
      "name": "depositTokens",
      "outputs": [],
      "stateMutability": "nonpayable",
      "type": "function"
    },
    {
      "inputs": [],
      "name": "distribution",
      "outputs": [
        {
          "internalType": "contract IERC20",
          "name": "token",
          "type": "address"
        },
        {
          "internalType": "address",
          "name": "owner",
          "type": "address"
        },
        {
          "internalType": "bool",
          "name": "isCreated",
          "type": "bool"
        },
        {
          "internalType": "bool",
          "name": "tokensDeposited",
          "type": "bool"
        },
        {
          "internalType": "uint256",
          "name": "amountOfTokensToDistribute",
          "type": "uint256"
        },
        {
          "internalType": "uint256",
          "name": "totalTokensDistributed",
          "type": "uint256"
        }
      ],
      "stateMutability": "view",
      "type": "function"
    },
    {
      "inputs": [],
      "name": "distributionRound",
      "outputs": [
        {
          "internalType": "uint256",
          "name": "startDate",
          "type": "uint256"
        },
        {
          "internalType": "uint256",
          "name": "endDate",
          "type": "uint256"
        }
      ],
      "stateMutability": "view",
      "type": "function"
    },
    {
      "inputs": [],
      "name": "getClaimedUsers",
      "outputs": [
        {
          "internalType": "address[]",
          "name": "",
          "type": "address[]"
        }
      ],
      "stateMutability": "view",
      "type": "function"
    },
    {
      "inputs": [],
      "name": "getParticipatedUsers",
      "outputs": [
        {
          "internalType": "address[]",
          "name": "",
          "type": "address[]"
        }
      ],
      "stateMutability": "view",
      "type": "function"
    },
    {
      "inputs": [],
      "name": "getRegisteredUsers",
      "outputs": [
        {
          "internalType": "address[]",
          "name": "",
          "type": "address[]"
        }
      ],
      "stateMutability": "view",
      "type": "function"
    },
    {
      "inputs": [],
      "name": "getVestingPortions",
      "outputs": [
        {
          "internalType": "uint256[]",
          "name": "",
          "type": "uint256[]"
        }
      ],
      "stateMutability": "view",
      "type": "function"
    },
    {
      "inputs": [],
      "name": "getVestingUnlocks",
      "outputs": [
        {
          "internalType": "uint256[]",
          "name": "",
          "type": "uint256[]"
        }
      ],
      "stateMutability": "view",
      "type": "function"
    },
    {
      "inputs": [
        {
          "internalType": "uint256",
          "name": "",
          "type": "uint256"
        }
      ],
      "name": "indexToClaimedUsers",
      "outputs": [
        {
          "internalType": "address",
          "name": "",
          "type": "address"
        }
      ],
      "stateMutability": "view",
      "type": "function"
    },
    {
      "inputs": [
        {
          "internalType": "uint256",
          "name": "",
          "type": "uint256"
        }
      ],
      "name": "indexToParticipiants",
      "outputs": [
        {
          "internalType": "address",
          "name": "",
          "type": "address"
        }
      ],
      "stateMutability": "view",
      "type": "function"
    },
    {
      "inputs": [
        {
          "internalType": "uint256",
          "name": "",
          "type": "uint256"
        }
      ],
      "name": "indexToRegistrations",
      "outputs": [
        {
          "internalType": "address",
          "name": "",
          "type": "address"
        }
      ],
      "stateMutability": "view",
      "type": "function"
    },
    {
      "inputs": [],
      "name": "leftoverWithdrawn",
      "outputs": [
        {
          "internalType": "bool",
          "name": "",
          "type": "bool"
        }
      ],
      "stateMutability": "view",
      "type": "function"
    },
    {
      "inputs": [],
      "name": "participate",
      "outputs": [],
      "stateMutability": "nonpayable",
      "type": "function"
    },
    {
      "inputs": [
        {
          "internalType": "address[]",
          "name": "_addresses",
          "type": "address[]"
        }
      ],
      "name": "participateMultipleUsers",
      "outputs": [],
      "stateMutability": "nonpayable",
      "type": "function"
    },
    {
      "inputs": [
        {
          "internalType": "address",
          "name": "",
          "type": "address"
        }
      ],
      "name": "participations",
      "outputs": [
        {
          "internalType": "uint256",
          "name": "datetime",
          "type": "uint256"
        },
        {
          "internalType": "bool",
          "name": "isParticipated",
          "type": "bool"
        }
      ],
      "stateMutability": "view",
      "type": "function"
    },
    {
      "inputs": [],
      "name": "participiantsCount",
      "outputs": [
        {
          "internalType": "uint256",
          "name": "",
          "type": "uint256"
        }
      ],
      "stateMutability": "view",
      "type": "function"
    },
    {
      "inputs": [],
      "name": "register",
      "outputs": [],
      "stateMutability": "nonpayable",
      "type": "function"
    },
    {
      "inputs": [
        {
          "internalType": "address[]",
          "name": "_addresses",
          "type": "address[]"
        }
      ],
      "name": "registerMultipleUsers",
      "outputs": [],
      "stateMutability": "nonpayable",
      "type": "function"
    },
    {
      "inputs": [
        {
          "internalType": "address",
          "name": "_address",
          "type": "address"
        }
      ],
      "name": "registerUser",
      "outputs": [],
      "stateMutability": "nonpayable",
      "type": "function"
    },
    {
      "inputs": [],
      "name": "registrationFee",
      "outputs": [
        {
          "internalType": "uint256",
          "name": "",
          "type": "uint256"
        }
      ],
      "stateMutability": "view",
      "type": "function"
    },
    {
      "inputs": [],
      "name": "registrationFeeWithdrawn",
      "outputs": [
        {
          "internalType": "bool",
          "name": "",
          "type": "bool"
        }
      ],
      "stateMutability": "view",
      "type": "function"
    },
    {
      "inputs": [],
      "name": "registrationRound",
      "outputs": [
        {
          "internalType": "uint256",
          "name": "startDate",
          "type": "uint256"
        },
        {
          "internalType": "uint256",
          "name": "endDate",
          "type": "uint256"
        }
      ],
      "stateMutability": "view",
      "type": "function"
    },
    {
      "inputs": [
        {
          "internalType": "address",
          "name": "",
          "type": "address"
        }
      ],
      "name": "registrations",
      "outputs": [
        {
          "internalType": "uint256",
          "name": "datetime",
          "type": "uint256"
        },
        {
          "internalType": "uint256",
          "name": "distributionAmount",
          "type": "uint256"
        },
        {
          "internalType": "bool",
          "name": "isRegistered",
          "type": "bool"
        }
      ],
      "stateMutability": "view",
      "type": "function"
    },
    {
      "inputs": [],
      "name": "registrationsCount",
      "outputs": [
        {
          "internalType": "uint256",
          "name": "",
          "type": "uint256"
        }
      ],
      "stateMutability": "view",
      "type": "function"
    },
    {
      "inputs": [
        {
          "internalType": "address",
          "name": "_address",
          "type": "address"
        },
        {
          "internalType": "uint256",
          "name": "_amount",
          "type": "uint256"
        }
      ],
      "name": "setAddressDistributionAmount",
      "outputs": [],
      "stateMutability": "nonpayable",
      "type": "function"
    },
    {
      "inputs": [
        {
          "internalType": "uint256",
          "name": "_amountOfTokensToDistribute",
          "type": "uint256"
        },
        {
          "internalType": "uint256",
          "name": "_vestingPrecision",
          "type": "uint256"
        },
        {
          "internalType": "address",
          "name": "_owner",
          "type": "address"
        },
        {
          "internalType": "address",
          "name": "_token",
          "type": "address"
        }
      ],
      "name": "setDistributionParameters",
      "outputs": [],
      "stateMutability": "nonpayable",
      "type": "function"
    },
    {
      "inputs": [
        {
          "internalType": "uint256",
          "name": "_startDate",
          "type": "uint256"
        },
        {
          "internalType": "uint256",
          "name": "_endDate",
          "type": "uint256"
        }
      ],
      "name": "setDistributionRound",
      "outputs": [],
      "stateMutability": "nonpayable",
      "type": "function"
    },
    {
      "inputs": [
        {
          "components": [
            {
              "internalType": "address",
              "name": "user",
              "type": "address"
            },
            {
              "internalType": "uint256",
              "name": "amount",
              "type": "uint256"
            }
          ],
          "internalType": "struct Distributor.Allocation[]",
          "name": "_allocations",
          "type": "tuple[]"
        }
      ],
      "name": "setMultipleAddressDistributionAmount",
      "outputs": [],
      "stateMutability": "nonpayable",
      "type": "function"
    },
    {
      "inputs": [
        {
          "internalType": "uint256",
          "name": "_feeAmount",
          "type": "uint256"
        }
      ],
      "name": "setRegistrationFee",
      "outputs": [],
      "stateMutability": "nonpayable",
      "type": "function"
    },
    {
      "inputs": [
        {
          "internalType": "uint256",
          "name": "_startDate",
          "type": "uint256"
        },
        {
          "internalType": "uint256",
          "name": "_endDate",
          "type": "uint256"
        }
      ],
      "name": "setRegistrationRound",
      "outputs": [],
      "stateMutability": "nonpayable",
      "type": "function"
    },
    {
      "inputs": [
        {
          "internalType": "uint256",
          "name": "_endDate",
          "type": "uint256"
        }
      ],
      "name": "setVestingEndDate",
      "outputs": [],
      "stateMutability": "nonpayable",
      "type": "function"
    },
    {
      "inputs": [
        {
          "internalType": "uint256[]",
          "name": "_unlockingTimes",
          "type": "uint256[]"
        },
        {
          "internalType": "uint256[]",
          "name": "_percents",
          "type": "uint256[]"
        }
      ],
      "name": "setVestingParams",
      "outputs": [],
      "stateMutability": "nonpayable",
      "type": "function"
    },
    {
      "inputs": [],
      "name": "totalRegistrationFee",
      "outputs": [
        {
          "internalType": "uint256",
          "name": "",
          "type": "uint256"
        }
      ],
      "stateMutability": "view",
      "type": "function"
    },
    {
      "inputs": [],
      "name": "vestingEndDate",
      "outputs": [
        {
          "internalType": "uint256",
          "name": "",
          "type": "uint256"
        }
      ],
      "stateMutability": "view",
      "type": "function"
    },
    {
      "inputs": [],
      "name": "vestingEventsCount",
      "outputs": [
        {
          "internalType": "uint256",
          "name": "",
          "type": "uint256"
        }
      ],
      "stateMutability": "view",
      "type": "function"
    },
    {
      "inputs": [
        {
          "internalType": "uint256",
          "name": "",
          "type": "uint256"
        }
      ],
      "name": "vestingPercentPerPortion",
      "outputs": [
        {
          "internalType": "uint256",
          "name": "",
          "type": "uint256"
        }
      ],
      "stateMutability": "view",
      "type": "function"
    },
    {
      "inputs": [
        {
          "internalType": "uint256",
          "name": "",
          "type": "uint256"
        }
      ],
      "name": "vestingPortionsUnlockTime",
      "outputs": [
        {
          "internalType": "uint256",
          "name": "",
          "type": "uint256"
        }
      ],
      "stateMutability": "view",
      "type": "function"
    },
    {
      "inputs": [],
      "name": "vestingPrecision",
      "outputs": [
        {
          "internalType": "uint256",
          "name": "",
          "type": "uint256"
        }
      ],
      "stateMutability": "view",
      "type": "function"
    },
    {
      "inputs": [],
      "name": "withdraw",
      "outputs": [],
      "stateMutability": "nonpayable",
      "type": "function"
    },
    {
      "inputs": [],
      "name": "withdrawFee",
      "outputs": [],
      "stateMutability": "nonpayable",
      "type": "function"
    },
    {
      "inputs": [],
      "name": "withdrawLeftover",
      "outputs": [],
      "stateMutability": "nonpayable",
      "type": "function"
    }
  ],
  "bytecode": "60806040523480156200001157600080fd5b5060405162002c7438038062002c7483398101604081905262000034916200005a565b601280546001600160a01b0319166001600160a01b03929092169190911790556200008c565b6000602082840312156200006d57600080fd5b81516001600160a01b03811681146200008557600080fd5b9392505050565b612bd8806200009c6000396000f3fe608060405234801561001057600080fd5b506004361061027f5760003560e01c80638444f1531161015c578063c320c727116100ce578063ef81fafd11610087578063ef81fafd1461060b578063f1d916e214610613578063f1ef7ff21461061c578063f4b7a4131461062f578063f851a44014610642578063fc9541441461065557600080fd5b8063c320c727146105b9578063c44c209a146105cc578063c931c132146105df578063d11711a2146105e8578063e5664d84146105f0578063e941fa781461060357600080fd5b806398c32a7f1161012057806398c32a7f14610551578063a525d23714610574578063aa6cb71d1461057c578063b1cde24414610585578063bb0f0d5114610593578063bdbf1845146105a657600080fd5b80638444f153146104c757806384ba55b0146104da57806386123cb1146104e3578063927f6aee146104f0578063942e6bcf1461050357600080fd5b80633db5a524116101f55780637073c072116101b95780637073c0721461047657806372c0fe1d1461047e578063760b7c4114610491578063793a2954146104a45780637c4b414d146104b75780637e87c053146104bf57600080fd5b80633db5a524146103965780633ef83ca91461039f57806347deb840146103c85780635ee58efc146103dd57806362b21fa11461045657600080fd5b80631c5f47ee116102475780631c5f47ee146103235780631eeadfa8146103405780632199d5cd146103495780633c3ec8b71461035c5780633c961fc2146103855780633ccfd60b1461038e57600080fd5b806308fd57001461028457806314c44e09146102ca5780631754d62d146102e15780631aa3a008146103045780631ba7dd1e1461030e575b600080fd5b6102ad6102923660046124ea565b6006602052600090815260409020546001600160a01b031681565b6040516001600160a01b0390911681526020015b60405180910390f35b6102d3600a5481565b6040519081526020016102c1565b6017546018546102ef919082565b604080519283526020830191909152016102c1565b61030c610694565b005b61031661069f565b6040516102c19190612503565b601b546103309060ff1681565b60405190151581526020016102c1565b6102d3600e5481565b61030c610357366004612563565b6106f7565b6102ad61036a3660046124ea565b6003602052600090815260409020546001600160a01b031681565b6102d3600f5481565b61030c610766565b6102d3600d5481565b6102ad6103ad3660046124ea565b6000602081905290815260409020546001600160a01b031681565b6103d0610ac1565b6040516102c1919061257e565b601354601454601554601654610416936001600160a01b03908116939081169260ff600160a01b8304811693600160a81b909304169186565b604080516001600160a01b0397881681529690951660208701529215159385019390935215156060840152608083019190915260a082015260c0016102c1565b6102d3610464366004612563565b60086020526000908152604090205481565b6103d0610b7b565b61030c61048c3660046124ea565b610c2f565b61030c61049f3660046125bf565b610da3565b61030c6104b2366004612605565b610ea9565b61030c611007565b61031661119d565b61030c6104d5366004612605565b6111f3565b6102d360075481565b600c546103309060ff1681565b6102d36104fe3660046124ea565b61126f565b610534610511366004612563565b600260208190526000918252604090912080546001820154919092015460ff1683565b6040805193845260208401929092521515908201526060016102c1565b61033061055f366004612563565b60096020526000908152604090205460ff1681565b61030c611290565b6102d360045481565b601954601a546102ef919082565b61030c6105a1366004612627565b61144a565b61030c6105b43660046126e5565b611482565b61030c6105c73660046124ea565b6115b2565b61030c6105da3660046126e5565b61169e565b6102d3600b5481565b61030c6117ce565b61030c6105fe366004612777565b611807565b61030c6118f0565b6103d0611a73565b6102d360015481565b6102d361062a3660046124ea565b611b27565b61030c61063d36600461288f565b611b37565b6012546102ad906001600160a01b031681565b61067f610663366004612563565b6005602052600090815260409020805460019091015460ff1682565b604080519283529015156020830152016102c1565b61069d33611f07565b565b606060108054806020026020016040519081016040528092919081815260200182805480156106ed57602002820191906000526020600020905b8154815260200190600101908083116106d9575b5050505050905090565b601754421080159061070b57506018544211155b6107305760405162461bcd60e51b8152600401610727906128f3565b60405180910390fd5b6012546001600160a01b0316331461075a5760405162461bcd60e51b815260040161072790612940565b61076381611f07565b50565b60115415801590610778575060105415155b6107c45760405162461bcd60e51b815260206004820152601e60248201527f56657374696e6720706172616d657465727320617265206e6f742073657400006044820152606401610727565b336000908152600260208190526040909120015460ff166108275760405162461bcd60e51b815260206004820152601960248201527f41646472657373206973206e6f742072656769737465726564000000000000006044820152606401610727565b3360009081526005602052604090206001015460ff1661089d5760405162461bcd60e51b815260206004820152602b60248201527f41646472657373206973206e6f742070617274696369706174656420696e206460448201526a34b9ba3934b13aba34b7b760a91b6064820152608401610727565b3360009081526009602052604090205460ff161561090b5760405162461bcd60e51b815260206004820152602560248201527f416464726573732068617320657865637574656420776974686472617720616c604482015264726561647960d81b6064820152608401610727565b336000908152600260205260408120600181015461093b5760405162461bcd60e51b815260040161072790612977565b60005b6010548110156109d0576010818154811061095b5761095b6129ae565b906000526020600020015442106109be5760006109ae600e546109a86011858154811061098a5761098a6129ae565b90600052602060002001548660010154611fd590919063ffffffff16565b90611fe8565b90506109ba8482611ff4565b9350505b806109c8816129da565b91505061093e565b5060008211610a215760405162461bcd60e51b815260206004820152601d60248201527f5468657265206973206e6f7468696e6720746f207769647468647261770000006044820152606401610727565b6001805460009081526020818152604080832080546001600160a01b03191633908117909155835260099091529020805460ff19169091179055601654610a689083611ff4565b601655601354610a82906001600160a01b03163384612000565b6040805183815242602082015233917fffe903c0abe6b2dbb2f3474ef43d7a3c1fca49e5a774453423ca8e1952aabffa91015b60405180910390a25050565b6060600060075467ffffffffffffffff811115610ae057610ae0612651565b604051908082528060200260200182016040528015610b09578160200160208202803683370190505b50905060005b600754811015610b755760008181526006602052604090205482516001600160a01b03909116908190849084908110610b4a57610b4a6129ae565b6001600160a01b03909216602092830291909101909101525080610b6d816129da565b915050610b0f565b50919050565b6060600060045467ffffffffffffffff811115610b9a57610b9a612651565b604051908082528060200260200182016040528015610bc3578160200160208202803683370190505b50905060005b600454811015610b755760008181526003602052604090205482516001600160a01b03909116908190849084908110610c0457610c046129ae565b6001600160a01b03909216602092830291909101909101525080610c27816129da565b915050610bc9565b6012546001600160a01b03163314610c595760405162461bcd60e51b815260040161072790612940565b60115415801590610c6b575060105415155b610cb75760405162461bcd60e51b815260206004820152601e60248201527f56657374696e6720706172616d657465727320617265206e6f742073657400006044820152606401610727565b60108054610cc7906001906129f3565b81548110610cd757610cd76129ae565b90600052602060002001548111610d675760405162461bcd60e51b815260206004820152604860248201527f546865206c61737420646179206f662074686520646973747269627574696f6e60448201527f206d757374206265206c61746572207468616e20746865206c61737420756e6c6064820152676f636b2074696d6560c01b608482015260a401610727565b600d8190556040514281527f51cd8d644c60b19d1fe8b0b77aeff890ffa397c7929ecffcb4eebe508da23e27906020015b60405180910390a150565b6012546001600160a01b03163314610dcd5760405162461bcd60e51b815260040161072790612940565b601454600160a01b900460ff1615610e275760405162461bcd60e51b815260206004820152601c60248201527f446973747269627574696f6e20616c72656164792063726561746564000000006044820152606401610727565b601380546001600160a01b0319166001600160a01b0383811691909117909155601480546015879055600e869055600160a01b9285166001600160a81b0319909116179190911790556040514281527f8c2e4f5d79412539015e940e33e1a941abc0e75f4f7e8ccf610f1779593126729060200160405180910390a150505050565b6012546001600160a01b03163314610ed35760405162461bcd60e51b815260040161072790612940565b601454600160a01b900460ff16610f385760405162461bcd60e51b815260206004820152602360248201527f446973747269627574696f6e20706172616d657465727320617265206e6f74206044820152621cd95d60ea1b6064820152608401610727565b6018548211610faf5760405162461bcd60e51b815260206004820152603860248201527f446973747269627574696f6e20726f756e64206d757374206265206c6174657260448201527f207468616e20726567697374726174696f6e20726f756e6400000000000000006064820152608401610727565b6040805180820182528381526020018290526019839055601a829055517f7d5e91551dc6f3038619d85da877b41440d669756a40eeb78b1c9df6c6a988d590610ffb9042815260200190565b60405180910390a15050565b6014546001600160a01b031633146110705760405162461bcd60e51b815260206004820152602660248201527f416c6c6f777320646973747269627574696f6e206f776e65722061646472657360448201526573206f6e6c7960d01b6064820152608401610727565b601454600160a01b900460ff166110c95760405162461bcd60e51b815260206004820152601b60248201527f446973747269627574696f6e206973206e6f74206372656174656400000000006044820152606401610727565b601454600160a81b900460ff161561112d5760405162461bcd60e51b815260206004820152602160248201527f546f6b656e7320686173206265656e206465706f736974656420616c726561646044820152607960f81b6064820152608401610727565b6014805460ff60a81b1916600160a81b17905560155460135461115f916001600160a01b039091169033903090612068565b601554604080519182524260208301527f41fb7ad419fc7623dde1142cd095a12727aa6965ab1d484a6d0d9327403d98ba91015b60405180910390a1565b606060118054806020026020016040519081016040528092919081815260200182805480156106ed57602002820191906000526020600020908154815260200190600101908083116106d9575050505050905090565b6012546001600160a01b0316331461121d5760405162461bcd60e51b815260040161072790612940565b42821015801561122c57508181115b61123557600080fd5b601782905560188190556040514281527f95a21281108b566135ddaa849f46ac5edee2287699ce9443ac1490705cd63d7790602001610ffb565b6011818154811061127f57600080fd5b600091825260209091200154905081565b6012546001600160a01b031633146112ba5760405162461bcd60e51b815260040161072790612940565b6000600d541161130c5760405162461bcd60e51b815260206004820152601b60248201527f56657374696e6720656e642064617465206973206e6f742073657400000000006044820152606401610727565b600d544210156113695760405162461bcd60e51b815260206004820152602260248201527f56657374696e6720706572696f64206973206e6f742066696e69736865642079604482015261195d60f21b6064820152608401610727565b601b5460ff16156113bc5760405162461bcd60e51b815260206004820152601a60248201527f4c6566746f76657220616c72656164792077697468647261776e0000000000006044820152606401610727565b6016546015546000916113cf91906120a6565b9050600081116113f15760405162461bcd60e51b815260040161072790612977565b601b805460ff19166001179055601354611415906001600160a01b03163383612000565b604080518281524260208201527f916df0289cd11709c23d76b058e49f450d9166358632288d463fb94a6eb4f5349101610d98565b6012546001600160a01b031633146114745760405162461bcd60e51b815260040161072790612940565b61147e82826120b2565b5050565b60195442108015906114965750601a544211155b6114b25760405162461bcd60e51b815260040161072790612a0a565b6012546001600160a01b031633146114dc5760405162461bcd60e51b815260040161072790612940565b60008151116114fd5760405162461bcd60e51b815260040161072790612a57565b60005b8151811015611581576005600083838151811061151f5761151f6129ae565b6020908102919091018101516001600160a01b031682528101919091526040016000206001015460ff1661156f5761156f828281518110611562576115626129ae565b6020026020010151612179565b80611579816129da565b915050611500565b506040514281527f525c1dd4bbe6d5f1e1980ad2fd520cf4bf3faa64b1338ebc569e2217cba99c7490602001610d98565b6012546001600160a01b031633146115dc5760405162461bcd60e51b815260040161072790612940565b60175442106116645760405162461bcd60e51b815260206004820152604860248201527f53657420726567697374726174696f6e20666565206973206e6f7420706f737360448201527f69626c65207768696c6520726567697374726174696f6e20726f756e642069736064820152672072756e6e696e6760c01b608482015260a401610727565b600a819055604080518281524260208201527fbe7cb011e7ac160d289db2c3c69e6045d32bca222d4729f8409abbdfe7d6dd499101610d98565b60175442108015906116b257506018544211155b6116ce5760405162461bcd60e51b8152600401610727906128f3565b6012546001600160a01b031633146116f85760405162461bcd60e51b815260040161072790612940565b60008151116117195760405162461bcd60e51b815260040161072790612a57565b60005b815181101561179d576002600083838151811061173b5761173b6129ae565b6020908102919091018101516001600160a01b031682528101919091526040016000206002015460ff1661178b5761178b82828151811061177e5761177e6129ae565b6020026020010151611f07565b80611795816129da565b91505061171c565b506040514281527f3ed3ff891af065b7aecb80d2d3e0543afd07e2b38e36d9e98700feebf26482b390602001610d98565b60195442108015906117e25750601a544211155b6117fe5760405162461bcd60e51b815260040161072790612a0a565b61069d33612179565b6012546001600160a01b031633146118315760405162461bcd60e51b815260040161072790612940565b60008151116118a15760405162461bcd60e51b815260206004820152603660248201527f54686520616c6c6f636174696f6e206172726179206d75737420636f6e7461696044820152751b881bdb9948195b195b595b9d08185d081b19585cdd60521b6064820152608401610727565b60005b815181101561147e5760008282815181106118c1576118c16129ae565b602002602001015190506118dd816000015182602001516120b2565b50806118e8816129da565b9150506118a4565b6012546001600160a01b0316331461191a5760405162461bcd60e51b815260040161072790612940565b60185442101561197b5760405162461bcd60e51b815260206004820152602660248201527f526567697374726174696f6e20726f756e64206973206e6f742066696e6973686044820152651959081e595d60d21b6064820152608401610727565b600c5460ff16156119d95760405162461bcd60e51b815260206004820152602260248201527f526567697374726174696f6e2066656520616c726561647920776974686472616044820152613bb760f11b6064820152608401610727565b6000600b54116119fb5760405162461bcd60e51b815260040161072790612977565b600c805460ff19166001179055600b54604051339180156108fc02916000818181858888f19350505050158015611a36573d6000803e3d6000fd5b506000600b819055604080519182524260208301527f0a86d3615abd799fbaa5be89d4941a68641aec3f02b8f19faff5dfade02817bc9101611193565b6060600060015467ffffffffffffffff811115611a9257611a92612651565b604051908082528060200260200182016040528015611abb578160200160208202803683370190505b50905060005b600154811015610b755760008181526020819052604090205482516001600160a01b03909116908190849084908110611afc57611afc6129ae565b6001600160a01b03909216602092830291909101909101525080611b1f816129da565b915050611ac1565b6010818154811061127f57600080fd5b6012546001600160a01b03163314611b615760405162461bcd60e51b815260040161072790612940565b601154158015611b715750601054155b611bbd5760405162461bcd60e51b815260206004820152601e60248201527f56657374696e6720706172616d657465727320616c72656164792073657400006044820152606401610727565b8051825114611c425760405162461bcd60e51b8152602060048201526044602482018190527f556e6c6f636b696e672054696d6573206c656e677468206d7573742062652065908201527f7175616c20776974682050657263656e742050657220506f7274696f6e206c656064820152630dccee8d60e31b608482015260a401610727565b601454600160a01b900460ff16611c9b5760405162461bcd60e51b815260206004820152601b60248201527f446973747269627574696f6e206973206e6f74206372656174656400000000006044820152606401610727565b60196001015482600081518110611cb457611cb46129ae565b602002602001015111611d215760405162461bcd60e51b815260206004820152602f60248201527f556e6c6f636b2074696d65206d7573742062652061667465722074686520646960448201526e73747269627574696f6e20656e647360881b6064820152608401610727565b6000805b8351811015611e7d578015611dd15783611d406001836129f3565b81518110611d5057611d506129ae565b6020026020010151848281518110611d6a57611d6a6129ae565b602002602001015111611dd15760405162461bcd60e51b815260206004820152602960248201527f556e6c6f636b2074696d65206d7573742062652067726561746572207468616e6044820152682070726576696f757360b81b6064820152608401610727565b6010848281518110611de557611de56129ae565b602090810291909101810151825460018101845560009384529190922001558251601190849083908110611e1b57611e1b6129ae565b602090810291909101810151825460018101845560009384529190922001558251611e6990849083908110611e5257611e526129ae565b602002602001015183611ff490919063ffffffff16565b915080611e75816129da565b915050611d25565b5080600e5414611ecf5760405162461bcd60e51b815260206004820152601860248201527f507265636973696f6e2070657263656e747320697373756500000000000000006044820152606401610727565b6040514281527f1af3c14ce558c4a33618e1f36c8ea383fc552a672298056311fa66518719f6e09060200160405180910390a1505050565b604080516060810182524281526000602080830182815260018486018181526001600160a01b0388168086526002808652888720975188559351928701929092555194909101805460ff191694151594909417909355600480548352600390915292812080546001600160a01b03191690921790915581549190611f8a836129da565b9190505550806001600160a01b03167fe29d35093005f4d575e1003753426b57a7f64378ba73332eef9c6ccc2b8decd642604051611fca91815260200190565b60405180910390a250565b6000611fe18284612aac565b9392505050565b6000611fe18284612acb565b6000611fe18284612aed565b6040516001600160a01b03831660248201526044810182905261206390849063a9059cbb60e01b906064015b60408051601f198184030181529190526020810180516001600160e01b03166001600160e01b031990931692909217909152612297565b505050565b6040516001600160a01b03808516602483015283166044820152606481018290526120a09085906323b872dd60e01b9060840161202c565b50505050565b6000611fe182846129f3565b6001600160a01b0382166000908152600260208190526040909120015460ff166121295760405162461bcd60e51b815260206004820152602260248201527f50726f76696465642061646472657373206973206e6f74207265676973746572604482015261195960f21b6064820152608401610727565b6001600160a01b03821660008181526002602052604090819020600101839055517f853871dd4ff4467ae0a3797c2a42e5eab302352599565eef0619f58b00f2f3d990610ab59042815260200190565b6001600160a01b03811660009081526005602052604090206001015460ff16156121e55760405162461bcd60e51b815260206004820152601c60248201527f4164647265737320616c726561647920706172746963697061746564000000006044820152606401610727565b604080518082018252428152600160208083018281526001600160a01b03861660008181526005845286812095518655915194909301805460ff191694151594909417909355600780548452600690915292822080546001600160a01b031916909117905581549190612257836129da565b9190505550806001600160a01b03167fd00162658a963ed1bfc4ff82d4c5ddf3d2b28835dea3f61c483ceda1f59e197142604051611fca91815260200190565b60006122ec826040518060400160405280602081526020017f5361666545524332303a206c6f772d6c6576656c2063616c6c206661696c6564815250856001600160a01b03166123699092919063ffffffff16565b805190915015612063578080602001905181019061230a9190612b05565b6120635760405162461bcd60e51b815260206004820152602a60248201527f5361666545524332303a204552433230206f7065726174696f6e20646964206e6044820152691bdd081cdd58d8d9595960b21b6064820152608401610727565b60606123788484600085612380565b949350505050565b6060824710156123e15760405162461bcd60e51b815260206004820152602660248201527f416464726573733a20696e73756666696369656e742062616c616e636520666f6044820152651c8818d85b1b60d21b6064820152608401610727565b6001600160a01b0385163b6124385760405162461bcd60e51b815260206004820152601d60248201527f416464726573733a2063616c6c20746f206e6f6e2d636f6e74726163740000006044820152606401610727565b600080866001600160a01b031685876040516124549190612b53565b60006040518083038185875af1925050503d8060008114612491576040519150601f19603f3d011682016040523d82523d6000602084013e612496565b606091505b50915091506124a68282866124b1565b979650505050505050565b606083156124c0575081611fe1565b8251156124d05782518084602001fd5b8160405162461bcd60e51b81526004016107279190612b6f565b6000602082840312156124fc57600080fd5b5035919050565b6020808252825182820181905260009190848201906040850190845b8181101561253b5783518352928401929184019160010161251f565b50909695505050505050565b80356001600160a01b038116811461255e57600080fd5b919050565b60006020828403121561257557600080fd5b611fe182612547565b6020808252825182820181905260009190848201906040850190845b8181101561253b5783516001600160a01b03168352928401929184019160010161259a565b600080600080608085870312156125d557600080fd5b84359350602085013592506125ec60408601612547565b91506125fa60608601612547565b905092959194509250565b6000806040838503121561261857600080fd5b50508035926020909101359150565b6000806040838503121561263a57600080fd5b61264383612547565b946020939093013593505050565b634e487b7160e01b600052604160045260246000fd5b6040805190810167ffffffffffffffff8111828210171561268a5761268a612651565b60405290565b604051601f8201601f1916810167ffffffffffffffff811182821017156126b9576126b9612651565b604052919050565b600067ffffffffffffffff8211156126db576126db612651565b5060051b60200190565b600060208083850312156126f857600080fd5b823567ffffffffffffffff81111561270f57600080fd5b8301601f8101851361272057600080fd5b803561273361272e826126c1565b612690565b81815260059190911b8201830190838101908783111561275257600080fd5b928401925b828410156124a65761276884612547565b82529284019290840190612757565b6000602080838503121561278a57600080fd5b823567ffffffffffffffff8111156127a157600080fd5b8301601f810185136127b257600080fd5b80356127c061272e826126c1565b81815260069190911b820183019083810190878311156127df57600080fd5b928401925b828410156124a657604084890312156127fd5760008081fd5b612805612667565b61280e85612547565b815284860135868201528252604090930192908401906127e4565b600082601f83011261283a57600080fd5b8135602061284a61272e836126c1565b82815260059290921b8401810191818101908684111561286957600080fd5b8286015b84811015612884578035835291830191830161286d565b509695505050505050565b600080604083850312156128a257600080fd5b823567ffffffffffffffff808211156128ba57600080fd5b6128c686838701612829565b935060208501359150808211156128dc57600080fd5b506128e985828601612829565b9150509250929050565b6020808252602d908201527f526567697374726174696f6e20726f756e64206973206f766572206f72206e6f60408201526c1d081cdd185c9d1959081e595d609a1b606082015260800190565b60208082526019908201527f416c6c6f77732061646d696e2061646472657373206f6e6c7900000000000000604082015260600190565b6020808252601c908201527f5468657265206973206e6f7468696e6720746f20776974686472617700000000604082015260600190565b634e487b7160e01b600052603260045260246000fd5b634e487b7160e01b600052601160045260246000fd5b6000600182016129ec576129ec6129c4565b5060010190565b600082821015612a0557612a056129c4565b500390565b6020808252602d908201527f446973747269627574696f6e20726f756e64206973206f766572206f72206e6f60408201526c1d081cdd185c9d1959081e595d609a1b606082015260800190565b60208082526035908201527f54686520616464726573736573206172726179206d75737420636f6e7461696e604082015274081bdb9948195b195b595b9d08185d081b19585cdd605a1b606082015260800190565b6000816000190483118215151615612ac657612ac66129c4565b500290565b600082612ae857634e487b7160e01b600052601260045260246000fd5b500490565b60008219821115612b0057612b006129c4565b500190565b600060208284031215612b1757600080fd5b81518015158114611fe157600080fd5b60005b83811015612b42578181015183820152602001612b2a565b838111156120a05750506000910152565b60008251612b65818460208701612b27565b9190910192915050565b6020815260008251806020840152612b8e816040850160208701612b27565b601f01601f1916919091016040019291505056fea2646970667358221220180c12dcf3d47104d3ff168e2b4bb0d0745ab767195cc35879c03a0401942dff64736f6c634300080e0033",
  "bytecodeSha1": "292203615beb08aea07e064a9059651adc3dda8b",
  "compiler": {
    "evm_version": "istanbul",
    "optimizer": {
      "enabled": true,
      "runs": 200
    },
    "version": "0.8.14+commit.80d49f37"
  },
  "contractName": "Distributor",
  "language": "Solidity",
  "natspec": {
    "kind": "dev",
    "methods": {},
    "version": 1
  },
  "opcodes": "PUSH1 0x80 PUSH1 0x40 MSTORE CALLVALUE DUP1 ISZERO PUSH2 0x10 JUMPI PUSH1 0x0 DUP1 REVERT JUMPDEST POP PUSH1 0x4 CALLDATASIZE LT PUSH2 0x27F JUMPI PUSH1 0x0 CALLDATALOAD PUSH1 0xE0 SHR DUP1 PUSH4 0x8444F153 GT PUSH2 0x15C JUMPI DUP1 PUSH4 0xC320C727 GT PUSH2 0xCE JUMPI DUP1 PUSH4 0xEF81FAFD GT PUSH2 0x87 JUMPI DUP1 PUSH4 0xEF81FAFD EQ PUSH2 0x60B JUMPI DUP1 PUSH4 0xF1D916E2 EQ PUSH2 0x613 JUMPI DUP1 PUSH4 0xF1EF7FF2 EQ PUSH2 0x61C JUMPI DUP1 PUSH4 0xF4B7A413 EQ PUSH2 0x62F JUMPI DUP1 PUSH4 0xF851A440 EQ PUSH2 0x642 JUMPI DUP1 PUSH4 0xFC954144 EQ PUSH2 0x655 JUMPI PUSH1 0x0 DUP1 REVERT JUMPDEST DUP1 PUSH4 0xC320C727 EQ PUSH2 0x5B9 JUMPI DUP1 PUSH4 0xC44C209A EQ PUSH2 0x5CC JUMPI DUP1 PUSH4 0xC931C132 EQ PUSH2 0x5DF JUMPI DUP1 PUSH4 0xD11711A2 EQ PUSH2 0x5E8 JUMPI DUP1 PUSH4 0xE5664D84 EQ PUSH2 0x5F0 JUMPI DUP1 PUSH4 0xE941FA78 EQ PUSH2 0x603 JUMPI PUSH1 0x0 DUP1 REVERT JUMPDEST DUP1 PUSH4 0x98C32A7F GT PUSH2 0x120 JUMPI DUP1 PUSH4 0x98C32A7F EQ PUSH2 0x551 JUMPI DUP1 PUSH4 0xA525D237 EQ PUSH2 0x574 JUMPI DUP1 PUSH4 0xAA6CB71D EQ PUSH2 0x57C JUMPI DUP1 PUSH4 0xB1CDE244 EQ PUSH2 0x585 JUMPI DUP1 PUSH4 0xBB0F0D51 EQ PUSH2 0x593 JUMPI DUP1 PUSH4 0xBDBF1845 EQ PUSH2 0x5A6 JUMPI PUSH1 0x0 DUP1 REVERT JUMPDEST DUP1 PUSH4 0x8444F153 EQ PUSH2 0x4C7 JUMPI DUP1 PUSH4 0x84BA55B0 EQ PUSH2 0x4DA JUMPI DUP1 PUSH4 0x86123CB1 EQ PUSH2 0x4E3 JUMPI DUP1 PUSH4 0x927F6AEE EQ PUSH2 0x4F0 JUMPI DUP1 PUSH4 0x942E6BCF EQ PUSH2 0x503 JUMPI PUSH1 0x0 DUP1 REVERT JUMPDEST DUP1 PUSH4 0x3DB5A524 GT PUSH2 0x1F5 JUMPI DUP1 PUSH4 0x7073C072 GT PUSH2 0x1B9 JUMPI DUP1 PUSH4 0x7073C072 EQ PUSH2 0x476 JUMPI DUP1 PUSH4 0x72C0FE1D EQ PUSH2 0x47E JUMPI DUP1 PUSH4 0x760B7C41 EQ PUSH2 0x491 JUMPI DUP1 PUSH4 0x793A2954 EQ PUSH2 0x4A4 JUMPI DUP1 PUSH4 0x7C4B414D EQ PUSH2 0x4B7 JUMPI DUP1 PUSH4 0x7E87C053 EQ PUSH2 0x4BF JUMPI PUSH1 0x0 DUP1 REVERT JUMPDEST DUP1 PUSH4 0x3DB5A524 EQ PUSH2 0x396 JUMPI DUP1 PUSH4 0x3EF83CA9 EQ PUSH2 0x39F JUMPI DUP1 PUSH4 0x47DEB840 EQ PUSH2 0x3C8 JUMPI DUP1 PUSH4 0x5EE58EFC EQ PUSH2 0x3DD JUMPI DUP1 PUSH4 0x62B21FA1 EQ PUSH2 0x456 JUMPI PUSH1 0x0 DUP1 REVERT JUMPDEST DUP1 PUSH4 0x1C5F47EE GT PUSH2 0x247 JUMPI DUP1 PUSH4 0x1C5F47EE EQ PUSH2 0x323 JUMPI DUP1 PUSH4 0x1EEADFA8 EQ PUSH2 0x340 JUMPI DUP1 PUSH4 0x2199D5CD EQ PUSH2 0x349 JUMPI DUP1 PUSH4 0x3C3EC8B7 EQ PUSH2 0x35C JUMPI DUP1 PUSH4 0x3C961FC2 EQ PUSH2 0x385 JUMPI DUP1 PUSH4 0x3CCFD60B EQ PUSH2 0x38E JUMPI PUSH1 0x0 DUP1 REVERT JUMPDEST DUP1 PUSH4 0x8FD5700 EQ PUSH2 0x284 JUMPI DUP1 PUSH4 0x14C44E09 EQ PUSH2 0x2CA JUMPI DUP1 PUSH4 0x1754D62D EQ PUSH2 0x2E1 JUMPI DUP1 PUSH4 0x1AA3A008 EQ PUSH2 0x304 JUMPI DUP1 PUSH4 0x1BA7DD1E EQ PUSH2 0x30E JUMPI JUMPDEST PUSH1 0x0 DUP1 REVERT JUMPDEST PUSH2 0x2AD PUSH2 0x292 CALLDATASIZE PUSH1 0x4 PUSH2 0x24EA JUMP JUMPDEST PUSH1 0x6 PUSH1 0x20 MSTORE PUSH1 0x0 SWAP1 DUP2 MSTORE PUSH1 0x40 SWAP1 KECCAK256 SLOAD PUSH1 0x1 PUSH1 0x1 PUSH1 0xA0 SHL SUB AND DUP2 JUMP JUMPDEST PUSH1 0x40 MLOAD PUSH1 0x1 PUSH1 0x1 PUSH1 0xA0 SHL SUB SWAP1 SWAP2 AND DUP2 MSTORE PUSH1 0x20 ADD JUMPDEST PUSH1 0x40 MLOAD DUP1 SWAP2 SUB SWAP1 RETURN JUMPDEST PUSH2 0x2D3 PUSH1 0xA SLOAD DUP2 JUMP JUMPDEST PUSH1 0x40 MLOAD SWAP1 DUP2 MSTORE PUSH1 0x20 ADD PUSH2 0x2C1 JUMP JUMPDEST PUSH1 0x17 SLOAD PUSH1 0x18 SLOAD PUSH2 0x2EF SWAP2 SWAP1 DUP3 JUMP JUMPDEST PUSH1 0x40 DUP1 MLOAD SWAP3 DUP4 MSTORE PUSH1 0x20 DUP4 ADD SWAP2 SWAP1 SWAP2 MSTORE ADD PUSH2 0x2C1 JUMP JUMPDEST PUSH2 0x30C PUSH2 0x694 JUMP JUMPDEST STOP JUMPDEST PUSH2 0x316 PUSH2 0x69F JUMP JUMPDEST PUSH1 0x40 MLOAD PUSH2 0x2C1 SWAP2 SWAP1 PUSH2 0x2503 JUMP JUMPDEST PUSH1 0x1B SLOAD PUSH2 0x330 SWAP1 PUSH1 0xFF AND DUP2 JUMP JUMPDEST PUSH1 0x40 MLOAD SWAP1 ISZERO ISZERO DUP2 MSTORE PUSH1 0x20 ADD PUSH2 0x2C1 JUMP JUMPDEST PUSH2 0x2D3 PUSH1 0xE SLOAD DUP2 JUMP JUMPDEST PUSH2 0x30C PUSH2 0x357 CALLDATASIZE PUSH1 0x4 PUSH2 0x2563 JUMP JUMPDEST PUSH2 0x6F7 JUMP JUMPDEST PUSH2 0x2AD PUSH2 0x36A CALLDATASIZE PUSH1 0x4 PUSH2 0x24EA JUMP JUMPDEST PUSH1 0x3 PUSH1 0x20 MSTORE PUSH1 0x0 SWAP1 DUP2 MSTORE PUSH1 0x40 SWAP1 KECCAK256 SLOAD PUSH1 0x1 PUSH1 0x1 PUSH1 0xA0 SHL SUB AND DUP2 JUMP JUMPDEST PUSH2 0x2D3 PUSH1 0xF SLOAD DUP2 JUMP JUMPDEST PUSH2 0x30C PUSH2 0x766 JUMP JUMPDEST PUSH2 0x2D3 PUSH1 0xD SLOAD DUP2 JUMP JUMPDEST PUSH2 0x2AD PUSH2 0x3AD CALLDATASIZE PUSH1 0x4 PUSH2 0x24EA JUMP JUMPDEST PUSH1 0x0 PUSH1 0x20 DUP2 SWAP1 MSTORE SWAP1 DUP2 MSTORE PUSH1 0x40 SWAP1 KECCAK256 SLOAD PUSH1 0x1 PUSH1 0x1 PUSH1 0xA0 SHL SUB AND DUP2 JUMP JUMPDEST PUSH2 0x3D0 PUSH2 0xAC1 JUMP JUMPDEST PUSH1 0x40 MLOAD PUSH2 0x2C1 SWAP2 SWAP1 PUSH2 0x257E JUMP JUMPDEST PUSH1 0x13 SLOAD PUSH1 0x14 SLOAD PUSH1 0x15 SLOAD PUSH1 0x16 SLOAD PUSH2 0x416 SWAP4 PUSH1 0x1 PUSH1 0x1 PUSH1 0xA0 SHL SUB SWAP1 DUP2 AND SWAP4 SWAP1 DUP2 AND SWAP3 PUSH1 0xFF PUSH1 0x1 PUSH1 0xA0 SHL DUP4 DIV DUP2 AND SWAP4 PUSH1 0x1 PUSH1 0xA8 SHL SWAP1 SWAP4 DIV AND SWAP2 DUP7 JUMP JUMPDEST PUSH1 0x40 DUP1 MLOAD PUSH1 0x1 PUSH1 0x1 PUSH1 0xA0 SHL SUB SWAP8 DUP9 AND DUP2 MSTORE SWAP7 SWAP1 SWAP6 AND PUSH1 0x20 DUP8 ADD MSTORE SWAP3 ISZERO ISZERO SWAP4 DUP6 ADD SWAP4 SWAP1 SWAP4 MSTORE ISZERO ISZERO PUSH1 0x60 DUP5 ADD MSTORE PUSH1 0x80 DUP4 ADD SWAP2 SWAP1 SWAP2 MSTORE PUSH1 0xA0 DUP3 ADD MSTORE PUSH1 0xC0 ADD PUSH2 0x2C1 JUMP JUMPDEST PUSH2 0x2D3 PUSH2 0x464 CALLDATASIZE PUSH1 0x4 PUSH2 0x2563 JUMP JUMPDEST PUSH1 0x8 PUSH1 0x20 MSTORE PUSH1 0x0 SWAP1 DUP2 MSTORE PUSH1 0x40 SWAP1 KECCAK256 SLOAD DUP2 JUMP JUMPDEST PUSH2 0x3D0 PUSH2 0xB7B JUMP JUMPDEST PUSH2 0x30C PUSH2 0x48C CALLDATASIZE PUSH1 0x4 PUSH2 0x24EA JUMP JUMPDEST PUSH2 0xC2F JUMP JUMPDEST PUSH2 0x30C PUSH2 0x49F CALLDATASIZE PUSH1 0x4 PUSH2 0x25BF JUMP JUMPDEST PUSH2 0xDA3 JUMP JUMPDEST PUSH2 0x30C PUSH2 0x4B2 CALLDATASIZE PUSH1 0x4 PUSH2 0x2605 JUMP JUMPDEST PUSH2 0xEA9 JUMP JUMPDEST PUSH2 0x30C PUSH2 0x1007 JUMP JUMPDEST PUSH2 0x316 PUSH2 0x119D JUMP JUMPDEST PUSH2 0x30C PUSH2 0x4D5 CALLDATASIZE PUSH1 0x4 PUSH2 0x2605 JUMP JUMPDEST PUSH2 0x11F3 JUMP JUMPDEST PUSH2 0x2D3 PUSH1 0x7 SLOAD DUP2 JUMP JUMPDEST PUSH1 0xC SLOAD PUSH2 0x330 SWAP1 PUSH1 0xFF AND DUP2 JUMP JUMPDEST PUSH2 0x2D3 PUSH2 0x4FE CALLDATASIZE PUSH1 0x4 PUSH2 0x24EA JUMP JUMPDEST PUSH2 0x126F JUMP JUMPDEST PUSH2 0x534 PUSH2 0x511 CALLDATASIZE PUSH1 0x4 PUSH2 0x2563 JUMP JUMPDEST PUSH1 0x2 PUSH1 0x20 DUP2 SWAP1 MSTORE PUSH1 0x0 SWAP2 DUP3 MSTORE PUSH1 0x40 SWAP1 SWAP2 KECCAK256 DUP1 SLOAD PUSH1 0x1 DUP3 ADD SLOAD SWAP2 SWAP1 SWAP3 ADD SLOAD PUSH1 0xFF AND DUP4 JUMP JUMPDEST PUSH1 0x40 DUP1 MLOAD SWAP4 DUP5 MSTORE PUSH1 0x20 DUP5 ADD SWAP3 SWAP1 SWAP3 MSTORE ISZERO ISZERO SWAP1 DUP3 ADD MSTORE PUSH1 0x60 ADD PUSH2 0x2C1 JUMP JUMPDEST PUSH2 0x330 PUSH2 0x55F CALLDATASIZE PUSH1 0x4 PUSH2 0x2563 JUMP JUMPDEST PUSH1 0x9 PUSH1 0x20 MSTORE PUSH1 0x0 SWAP1 DUP2 MSTORE PUSH1 0x40 SWAP1 KECCAK256 SLOAD PUSH1 0xFF AND DUP2 JUMP JUMPDEST PUSH2 0x30C PUSH2 0x1290 JUMP JUMPDEST PUSH2 0x2D3 PUSH1 0x4 SLOAD DUP2 JUMP JUMPDEST PUSH1 0x19 SLOAD PUSH1 0x1A SLOAD PUSH2 0x2EF SWAP2 SWAP1 DUP3 JUMP JUMPDEST PUSH2 0x30C PUSH2 0x5A1 CALLDATASIZE PUSH1 0x4 PUSH2 0x2627 JUMP JUMPDEST PUSH2 0x144A JUMP JUMPDEST PUSH2 0x30C PUSH2 0x5B4 CALLDATASIZE PUSH1 0x4 PUSH2 0x26E5 JUMP JUMPDEST PUSH2 0x1482 JUMP JUMPDEST PUSH2 0x30C PUSH2 0x5C7 CALLDATASIZE PUSH1 0x4 PUSH2 0x24EA JUMP JUMPDEST PUSH2 0x15B2 JUMP JUMPDEST PUSH2 0x30C PUSH2 0x5DA CALLDATASIZE PUSH1 0x4 PUSH2 0x26E5 JUMP JUMPDEST PUSH2 0x169E JUMP JUMPDEST PUSH2 0x2D3 PUSH1 0xB SLOAD DUP2 JUMP JUMPDEST PUSH2 0x30C PUSH2 0x17CE JUMP JUMPDEST PUSH2 0x30C PUSH2 0x5FE CALLDATASIZE PUSH1 0x4 PUSH2 0x2777 JUMP JUMPDEST PUSH2 0x1807 JUMP JUMPDEST PUSH2 0x30C PUSH2 0x18F0 JUMP JUMPDEST PUSH2 0x3D0 PUSH2 0x1A73 JUMP JUMPDEST PUSH2 0x2D3 PUSH1 0x1 SLOAD DUP2 JUMP JUMPDEST PUSH2 0x2D3 PUSH2 0x62A CALLDATASIZE PUSH1 0x4 PUSH2 0x24EA JUMP JUMPDEST PUSH2 0x1B27 JUMP JUMPDEST PUSH2 0x30C PUSH2 0x63D CALLDATASIZE PUSH1 0x4 PUSH2 0x288F JUMP JUMPDEST PUSH2 0x1B37 JUMP JUMPDEST PUSH1 0x12 SLOAD PUSH2 0x2AD SWAP1 PUSH1 0x1 PUSH1 0x1 PUSH1 0xA0 SHL SUB AND DUP2 JUMP JUMPDEST PUSH2 0x67F PUSH2 0x663 CALLDATASIZE PUSH1 0x4 PUSH2 0x2563 JUMP JUMPDEST PUSH1 0x5 PUSH1 0x20 MSTORE PUSH1 0x0 SWAP1 DUP2 MSTORE PUSH1 0x40 SWAP1 KECCAK256 DUP1 SLOAD PUSH1 0x1 SWAP1 SWAP2 ADD SLOAD PUSH1 0xFF AND DUP3 JUMP JUMPDEST PUSH1 0x40 DUP1 MLOAD SWAP3 DUP4 MSTORE SWAP1 ISZERO ISZERO PUSH1 0x20 DUP4 ADD MSTORE ADD PUSH2 0x2C1 JUMP JUMPDEST PUSH2 0x69D CALLER PUSH2 0x1F07 JUMP JUMPDEST JUMP JUMPDEST PUSH1 0x60 PUSH1 0x10 DUP1 SLOAD DUP1 PUSH1 0x20 MUL PUSH1 0x20 ADD PUSH1 0x40 MLOAD SWAP1 DUP2 ADD PUSH1 0x40 MSTORE DUP1 SWAP3 SWAP2 SWAP1 DUP2 DUP2 MSTORE PUSH1 0x20 ADD DUP3 DUP1 SLOAD DUP1 ISZERO PUSH2 0x6ED JUMPI PUSH1 0x20 MUL DUP3 ADD SWAP2 SWAP1 PUSH1 0x0 MSTORE PUSH1 0x20 PUSH1 0x0 KECCAK256 SWAP1 JUMPDEST DUP2 SLOAD DUP2 MSTORE PUSH1 0x20 ADD SWAP1 PUSH1 0x1 ADD SWAP1 DUP1 DUP4 GT PUSH2 0x6D9 JUMPI JUMPDEST POP POP POP POP POP SWAP1 POP SWAP1 JUMP JUMPDEST PUSH1 0x17 SLOAD TIMESTAMP LT DUP1 ISZERO SWAP1 PUSH2 0x70B JUMPI POP PUSH1 0x18 SLOAD TIMESTAMP GT ISZERO JUMPDEST PUSH2 0x730 JUMPI PUSH1 0x40 MLOAD PUSH3 0x461BCD PUSH1 0xE5 SHL DUP2 MSTORE PUSH1 0x4 ADD PUSH2 0x727 SWAP1 PUSH2 0x28F3 JUMP JUMPDEST PUSH1 0x40 MLOAD DUP1 SWAP2 SUB SWAP1 REVERT JUMPDEST PUSH1 0x12 SLOAD PUSH1 0x1 PUSH1 0x1 PUSH1 0xA0 SHL SUB AND CALLER EQ PUSH2 0x75A JUMPI PUSH1 0x40 MLOAD PUSH3 0x461BCD PUSH1 0xE5 SHL DUP2 MSTORE PUSH1 0x4 ADD PUSH2 0x727 SWAP1 PUSH2 0x2940 JUMP JUMPDEST PUSH2 0x763 DUP2 PUSH2 0x1F07 JUMP JUMPDEST POP JUMP JUMPDEST PUSH1 0x11 SLOAD ISZERO DUP1 ISZERO SWAP1 PUSH2 0x778 JUMPI POP PUSH1 0x10 SLOAD ISZERO ISZERO JUMPDEST PUSH2 0x7C4 JUMPI PUSH1 0x40 MLOAD PUSH3 0x461BCD PUSH1 0xE5 SHL DUP2 MSTORE PUSH1 0x20 PUSH1 0x4 DUP3 ADD MSTORE PUSH1 0x1E PUSH1 0x24 DUP3 ADD MSTORE PUSH32 0x56657374696E6720706172616D657465727320617265206E6F74207365740000 PUSH1 0x44 DUP3 ADD MSTORE PUSH1 0x64 ADD PUSH2 0x727 JUMP JUMPDEST CALLER PUSH1 0x0 SWAP1 DUP2 MSTORE PUSH1 0x2 PUSH1 0x20 DUP2 SWAP1 MSTORE PUSH1 0x40 SWAP1 SWAP2 KECCAK256 ADD SLOAD PUSH1 0xFF AND PUSH2 0x827 JUMPI PUSH1 0x40 MLOAD PUSH3 0x461BCD PUSH1 0xE5 SHL DUP2 MSTORE PUSH1 0x20 PUSH1 0x4 DUP3 ADD MSTORE PUSH1 0x19 PUSH1 0x24 DUP3 ADD MSTORE PUSH32 0x41646472657373206973206E6F74207265676973746572656400000000000000 PUSH1 0x44 DUP3 ADD MSTORE PUSH1 0x64 ADD PUSH2 0x727 JUMP JUMPDEST CALLER PUSH1 0x0 SWAP1 DUP2 MSTORE PUSH1 0x5 PUSH1 0x20 MSTORE PUSH1 0x40 SWAP1 KECCAK256 PUSH1 0x1 ADD SLOAD PUSH1 0xFF AND PUSH2 0x89D JUMPI PUSH1 0x40 MLOAD PUSH3 0x461BCD PUSH1 0xE5 SHL DUP2 MSTORE PUSH1 0x20 PUSH1 0x4 DUP3 ADD MSTORE PUSH1 0x2B PUSH1 0x24 DUP3 ADD MSTORE PUSH32 0x41646472657373206973206E6F742070617274696369706174656420696E2064 PUSH1 0x44 DUP3 ADD MSTORE PUSH11 0x34B9BA3934B13ABA34B7B7 PUSH1 0xA9 SHL PUSH1 0x64 DUP3 ADD MSTORE PUSH1 0x84 ADD PUSH2 0x727 JUMP JUMPDEST CALLER PUSH1 0x0 SWAP1 DUP2 MSTORE PUSH1 0x9 PUSH1 0x20 MSTORE PUSH1 0x40 SWAP1 KECCAK256 SLOAD PUSH1 0xFF AND ISZERO PUSH2 0x90B JUMPI PUSH1 0x40 MLOAD PUSH3 0x461BCD PUSH1 0xE5 SHL DUP2 MSTORE PUSH1 0x20 PUSH1 0x4 DUP3 ADD MSTORE PUSH1 0x25 PUSH1 0x24 DUP3 ADD MSTORE PUSH32 0x416464726573732068617320657865637574656420776974686472617720616C PUSH1 0x44 DUP3 ADD MSTORE PUSH5 0x7265616479 PUSH1 0xD8 SHL PUSH1 0x64 DUP3 ADD MSTORE PUSH1 0x84 ADD PUSH2 0x727 JUMP JUMPDEST CALLER PUSH1 0x0 SWAP1 DUP2 MSTORE PUSH1 0x2 PUSH1 0x20 MSTORE PUSH1 0x40 DUP2 KECCAK256 PUSH1 0x1 DUP2 ADD SLOAD PUSH2 0x93B JUMPI PUSH1 0x40 MLOAD PUSH3 0x461BCD PUSH1 0xE5 SHL DUP2 MSTORE PUSH1 0x4 ADD PUSH2 0x727 SWAP1 PUSH2 0x2977 JUMP JUMPDEST PUSH1 0x0 JUMPDEST PUSH1 0x10 SLOAD DUP2 LT ISZERO PUSH2 0x9D0 JUMPI PUSH1 0x10 DUP2 DUP2 SLOAD DUP2 LT PUSH2 0x95B JUMPI PUSH2 0x95B PUSH2 0x29AE JUMP JUMPDEST SWAP1 PUSH1 0x0 MSTORE PUSH1 0x20 PUSH1 0x0 KECCAK256 ADD SLOAD TIMESTAMP LT PUSH2 0x9BE JUMPI PUSH1 0x0 PUSH2 0x9AE PUSH1 0xE SLOAD PUSH2 0x9A8 PUSH1 0x11 DUP6 DUP2 SLOAD DUP2 LT PUSH2 0x98A JUMPI PUSH2 0x98A PUSH2 0x29AE JUMP JUMPDEST SWAP1 PUSH1 0x0 MSTORE PUSH1 0x20 PUSH1 0x0 KECCAK256 ADD SLOAD DUP7 PUSH1 0x1 ADD SLOAD PUSH2 0x1FD5 SWAP1 SWAP2 SWAP1 PUSH4 0xFFFFFFFF AND JUMP JUMPDEST SWAP1 PUSH2 0x1FE8 JUMP JUMPDEST SWAP1 POP PUSH2 0x9BA DUP5 DUP3 PUSH2 0x1FF4 JUMP JUMPDEST SWAP4 POP POP JUMPDEST DUP1 PUSH2 0x9C8 DUP2 PUSH2 0x29DA JUMP JUMPDEST SWAP2 POP POP PUSH2 0x93E JUMP JUMPDEST POP PUSH1 0x0 DUP3 GT PUSH2 0xA21 JUMPI PUSH1 0x40 MLOAD PUSH3 0x461BCD PUSH1 0xE5 SHL DUP2 MSTORE PUSH1 0x20 PUSH1 0x4 DUP3 ADD MSTORE PUSH1 0x1D PUSH1 0x24 DUP3 ADD MSTORE PUSH32 0x5468657265206973206E6F7468696E6720746F20776964746864726177000000 PUSH1 0x44 DUP3 ADD MSTORE PUSH1 0x64 ADD PUSH2 0x727 JUMP JUMPDEST PUSH1 0x1 DUP1 SLOAD PUSH1 0x0 SWAP1 DUP2 MSTORE PUSH1 0x20 DUP2 DUP2 MSTORE PUSH1 0x40 DUP1 DUP4 KECCAK256 DUP1 SLOAD PUSH1 0x1 PUSH1 0x1 PUSH1 0xA0 SHL SUB NOT AND CALLER SWAP1 DUP2 OR SWAP1 SWAP2 SSTORE DUP4 MSTORE PUSH1 0x9 SWAP1 SWAP2 MSTORE SWAP1 KECCAK256 DUP1 SLOAD PUSH1 0xFF NOT AND SWAP1 SWAP2 OR SWAP1 SSTORE PUSH1 0x16 SLOAD PUSH2 0xA68 SWAP1 DUP4 PUSH2 0x1FF4 JUMP JUMPDEST PUSH1 0x16 SSTORE PUSH1 0x13 SLOAD PUSH2 0xA82 SWAP1 PUSH1 0x1 PUSH1 0x1 PUSH1 0xA0 SHL SUB AND CALLER DUP5 PUSH2 0x2000 JUMP JUMPDEST PUSH1 0x40 DUP1 MLOAD DUP4 DUP2 MSTORE TIMESTAMP PUSH1 0x20 DUP3 ADD MSTORE CALLER SWAP2 PUSH32 0xFFE903C0ABE6B2DBB2F3474EF43D7A3C1FCA49E5A774453423CA8E1952AABFFA SWAP2 ADD JUMPDEST PUSH1 0x40 MLOAD DUP1 SWAP2 SUB SWAP1 LOG2 POP POP JUMP JUMPDEST PUSH1 0x60 PUSH1 0x0 PUSH1 0x7 SLOAD PUSH8 0xFFFFFFFFFFFFFFFF DUP2 GT ISZERO PUSH2 0xAE0 JUMPI PUSH2 0xAE0 PUSH2 0x2651 JUMP JUMPDEST PUSH1 0x40 MLOAD SWAP1 DUP1 DUP3 MSTORE DUP1 PUSH1 0x20 MUL PUSH1 0x20 ADD DUP3 ADD PUSH1 0x40 MSTORE DUP1 ISZERO PUSH2 0xB09 JUMPI DUP2 PUSH1 0x20 ADD PUSH1 0x20 DUP3 MUL DUP1 CALLDATASIZE DUP4 CALLDATACOPY ADD SWAP1 POP JUMPDEST POP SWAP1 POP PUSH1 0x0 JUMPDEST PUSH1 0x7 SLOAD DUP2 LT ISZERO PUSH2 0xB75 JUMPI PUSH1 0x0 DUP2 DUP2 MSTORE PUSH1 0x6 PUSH1 0x20 MSTORE PUSH1 0x40 SWAP1 KECCAK256 SLOAD DUP3 MLOAD PUSH1 0x1 PUSH1 0x1 PUSH1 0xA0 SHL SUB SWAP1 SWAP2 AND SWAP1 DUP2 SWAP1 DUP5 SWAP1 DUP5 SWAP1 DUP2 LT PUSH2 0xB4A JUMPI PUSH2 0xB4A PUSH2 0x29AE JUMP JUMPDEST PUSH1 0x1 PUSH1 0x1 PUSH1 0xA0 SHL SUB SWAP1 SWAP3 AND PUSH1 0x20 SWAP3 DUP4 MUL SWAP2 SWAP1 SWAP2 ADD SWAP1 SWAP2 ADD MSTORE POP DUP1 PUSH2 0xB6D DUP2 PUSH2 0x29DA JUMP JUMPDEST SWAP2 POP POP PUSH2 0xB0F JUMP JUMPDEST POP SWAP2 SWAP1 POP JUMP JUMPDEST PUSH1 0x60 PUSH1 0x0 PUSH1 0x4 SLOAD PUSH8 0xFFFFFFFFFFFFFFFF DUP2 GT ISZERO PUSH2 0xB9A JUMPI PUSH2 0xB9A PUSH2 0x2651 JUMP JUMPDEST PUSH1 0x40 MLOAD SWAP1 DUP1 DUP3 MSTORE DUP1 PUSH1 0x20 MUL PUSH1 0x20 ADD DUP3 ADD PUSH1 0x40 MSTORE DUP1 ISZERO PUSH2 0xBC3 JUMPI DUP2 PUSH1 0x20 ADD PUSH1 0x20 DUP3 MUL DUP1 CALLDATASIZE DUP4 CALLDATACOPY ADD SWAP1 POP JUMPDEST POP SWAP1 POP PUSH1 0x0 JUMPDEST PUSH1 0x4 SLOAD DUP2 LT ISZERO PUSH2 0xB75 JUMPI PUSH1 0x0 DUP2 DUP2 MSTORE PUSH1 0x3 PUSH1 0x20 MSTORE PUSH1 0x40 SWAP1 KECCAK256 SLOAD DUP3 MLOAD PUSH1 0x1 PUSH1 0x1 PUSH1 0xA0 SHL SUB SWAP1 SWAP2 AND SWAP1 DUP2 SWAP1 DUP5 SWAP1 DUP5 SWAP1 DUP2 LT PUSH2 0xC04 JUMPI PUSH2 0xC04 PUSH2 0x29AE JUMP JUMPDEST PUSH1 0x1 PUSH1 0x1 PUSH1 0xA0 SHL SUB SWAP1 SWAP3 AND PUSH1 0x20 SWAP3 DUP4 MUL SWAP2 SWAP1 SWAP2 ADD SWAP1 SWAP2 ADD MSTORE POP DUP1 PUSH2 0xC27 DUP2 PUSH2 0x29DA JUMP JUMPDEST SWAP2 POP POP PUSH2 0xBC9 JUMP JUMPDEST PUSH1 0x12 SLOAD PUSH1 0x1 PUSH1 0x1 PUSH1 0xA0 SHL SUB AND CALLER EQ PUSH2 0xC59 JUMPI PUSH1 0x40 MLOAD PUSH3 0x461BCD PUSH1 0xE5 SHL DUP2 MSTORE PUSH1 0x4 ADD PUSH2 0x727 SWAP1 PUSH2 0x2940 JUMP JUMPDEST PUSH1 0x11 SLOAD ISZERO DUP1 ISZERO SWAP1 PUSH2 0xC6B JUMPI POP PUSH1 0x10 SLOAD ISZERO ISZERO JUMPDEST PUSH2 0xCB7 JUMPI PUSH1 0x40 MLOAD PUSH3 0x461BCD PUSH1 0xE5 SHL DUP2 MSTORE PUSH1 0x20 PUSH1 0x4 DUP3 ADD MSTORE PUSH1 0x1E PUSH1 0x24 DUP3 ADD MSTORE PUSH32 0x56657374696E6720706172616D657465727320617265206E6F74207365740000 PUSH1 0x44 DUP3 ADD MSTORE PUSH1 0x64 ADD PUSH2 0x727 JUMP JUMPDEST PUSH1 0x10 DUP1 SLOAD PUSH2 0xCC7 SWAP1 PUSH1 0x1 SWAP1 PUSH2 0x29F3 JUMP JUMPDEST DUP2 SLOAD DUP2 LT PUSH2 0xCD7 JUMPI PUSH2 0xCD7 PUSH2 0x29AE JUMP JUMPDEST SWAP1 PUSH1 0x0 MSTORE PUSH1 0x20 PUSH1 0x0 KECCAK256 ADD SLOAD DUP2 GT PUSH2 0xD67 JUMPI PUSH1 0x40 MLOAD PUSH3 0x461BCD PUSH1 0xE5 SHL DUP2 MSTORE PUSH1 0x20 PUSH1 0x4 DUP3 ADD MSTORE PUSH1 0x48 PUSH1 0x24 DUP3 ADD MSTORE PUSH32 0x546865206C61737420646179206F662074686520646973747269627574696F6E PUSH1 0x44 DUP3 ADD MSTORE PUSH32 0x206D757374206265206C61746572207468616E20746865206C61737420756E6C PUSH1 0x64 DUP3 ADD MSTORE PUSH8 0x6F636B2074696D65 PUSH1 0xC0 SHL PUSH1 0x84 DUP3 ADD MSTORE PUSH1 0xA4 ADD PUSH2 0x727 JUMP JUMPDEST PUSH1 0xD DUP2 SWAP1 SSTORE PUSH1 0x40 MLOAD TIMESTAMP DUP2 MSTORE PUSH32 0x51CD8D644C60B19D1FE8B0B77AEFF890FFA397C7929ECFFCB4EEBE508DA23E27 SWAP1 PUSH1 0x20 ADD JUMPDEST PUSH1 0x40 MLOAD DUP1 SWAP2 SUB SWAP1 LOG1 POP JUMP JUMPDEST PUSH1 0x12 SLOAD PUSH1 0x1 PUSH1 0x1 PUSH1 0xA0 SHL SUB AND CALLER EQ PUSH2 0xDCD JUMPI PUSH1 0x40 MLOAD PUSH3 0x461BCD PUSH1 0xE5 SHL DUP2 MSTORE PUSH1 0x4 ADD PUSH2 0x727 SWAP1 PUSH2 0x2940 JUMP JUMPDEST PUSH1 0x14 SLOAD PUSH1 0x1 PUSH1 0xA0 SHL SWAP1 DIV PUSH1 0xFF AND ISZERO PUSH2 0xE27 JUMPI PUSH1 0x40 MLOAD PUSH3 0x461BCD PUSH1 0xE5 SHL DUP2 MSTORE PUSH1 0x20 PUSH1 0x4 DUP3 ADD MSTORE PUSH1 0x1C PUSH1 0x24 DUP3 ADD MSTORE PUSH32 0x446973747269627574696F6E20616C7265616479206372656174656400000000 PUSH1 0x44 DUP3 ADD MSTORE PUSH1 0x64 ADD PUSH2 0x727 JUMP JUMPDEST PUSH1 0x13 DUP1 SLOAD PUSH1 0x1 PUSH1 0x1 PUSH1 0xA0 SHL SUB NOT AND PUSH1 0x1 PUSH1 0x1 PUSH1 0xA0 SHL SUB DUP4 DUP2 AND SWAP2 SWAP1 SWAP2 OR SWAP1 SWAP2 SSTORE PUSH1 0x14 DUP1 SLOAD PUSH1 0x15 DUP8 SWAP1 SSTORE PUSH1 0xE DUP7 SWAP1 SSTORE PUSH1 0x1 PUSH1 0xA0 SHL SWAP3 DUP6 AND PUSH1 0x1 PUSH1 0x1 PUSH1 0xA8 SHL SUB NOT SWAP1 SWAP2 AND OR SWAP2 SWAP1 SWAP2 OR SWAP1 SSTORE PUSH1 0x40 MLOAD TIMESTAMP DUP2 MSTORE PUSH32 0x8C2E4F5D79412539015E940E33E1A941ABC0E75F4F7E8CCF610F177959312672 SWAP1 PUSH1 0x20 ADD PUSH1 0x40 MLOAD DUP1 SWAP2 SUB SWAP1 LOG1 POP POP POP POP JUMP JUMPDEST PUSH1 0x12 SLOAD PUSH1 0x1 PUSH1 0x1 PUSH1 0xA0 SHL SUB AND CALLER EQ PUSH2 0xED3 JUMPI PUSH1 0x40 MLOAD PUSH3 0x461BCD PUSH1 0xE5 SHL DUP2 MSTORE PUSH1 0x4 ADD PUSH2 0x727 SWAP1 PUSH2 0x2940 JUMP JUMPDEST PUSH1 0x14 SLOAD PUSH1 0x1 PUSH1 0xA0 SHL SWAP1 DIV PUSH1 0xFF AND PUSH2 0xF38 JUMPI PUSH1 0x40 MLOAD PUSH3 0x461BCD PUSH1 0xE5 SHL DUP2 MSTORE PUSH1 0x20 PUSH1 0x4 DUP3 ADD MSTORE PUSH1 0x23 PUSH1 0x24 DUP3 ADD MSTORE PUSH32 0x446973747269627574696F6E20706172616D657465727320617265206E6F7420 PUSH1 0x44 DUP3 ADD MSTORE PUSH3 0x1CD95D PUSH1 0xEA SHL PUSH1 0x64 DUP3 ADD MSTORE PUSH1 0x84 ADD PUSH2 0x727 JUMP JUMPDEST PUSH1 0x18 SLOAD DUP3 GT PUSH2 0xFAF JUMPI PUSH1 0x40 MLOAD PUSH3 0x461BCD PUSH1 0xE5 SHL DUP2 MSTORE PUSH1 0x20 PUSH1 0x4 DUP3 ADD MSTORE PUSH1 0x38 PUSH1 0x24 DUP3 ADD MSTORE PUSH32 0x446973747269627574696F6E20726F756E64206D757374206265206C61746572 PUSH1 0x44 DUP3 ADD MSTORE PUSH32 0x207468616E20726567697374726174696F6E20726F756E640000000000000000 PUSH1 0x64 DUP3 ADD MSTORE PUSH1 0x84 ADD PUSH2 0x727 JUMP JUMPDEST PUSH1 0x40 DUP1 MLOAD DUP1 DUP3 ADD DUP3 MSTORE DUP4 DUP2 MSTORE PUSH1 0x20 ADD DUP3 SWAP1 MSTORE PUSH1 0x19 DUP4 SWAP1 SSTORE PUSH1 0x1A DUP3 SWAP1 SSTORE MLOAD PUSH32 0x7D5E91551DC6F3038619D85DA877B41440D669756A40EEB78B1C9DF6C6A988D5 SWAP1 PUSH2 0xFFB SWAP1 TIMESTAMP DUP2 MSTORE PUSH1 0x20 ADD SWAP1 JUMP JUMPDEST PUSH1 0x40 MLOAD DUP1 SWAP2 SUB SWAP1 LOG1 POP POP JUMP JUMPDEST PUSH1 0x14 SLOAD PUSH1 0x1 PUSH1 0x1 PUSH1 0xA0 SHL SUB AND CALLER EQ PUSH2 0x1070 JUMPI PUSH1 0x40 MLOAD PUSH3 0x461BCD PUSH1 0xE5 SHL DUP2 MSTORE PUSH1 0x20 PUSH1 0x4 DUP3 ADD MSTORE PUSH1 0x26 PUSH1 0x24 DUP3 ADD MSTORE PUSH32 0x416C6C6F777320646973747269627574696F6E206F776E657220616464726573 PUSH1 0x44 DUP3 ADD MSTORE PUSH6 0x73206F6E6C79 PUSH1 0xD0 SHL PUSH1 0x64 DUP3 ADD MSTORE PUSH1 0x84 ADD PUSH2 0x727 JUMP JUMPDEST PUSH1 0x14 SLOAD PUSH1 0x1 PUSH1 0xA0 SHL SWAP1 DIV PUSH1 0xFF AND PUSH2 0x10C9 JUMPI PUSH1 0x40 MLOAD PUSH3 0x461BCD PUSH1 0xE5 SHL DUP2 MSTORE PUSH1 0x20 PUSH1 0x4 DUP3 ADD MSTORE PUSH1 0x1B PUSH1 0x24 DUP3 ADD MSTORE PUSH32 0x446973747269627574696F6E206973206E6F7420637265617465640000000000 PUSH1 0x44 DUP3 ADD MSTORE PUSH1 0x64 ADD PUSH2 0x727 JUMP JUMPDEST PUSH1 0x14 SLOAD PUSH1 0x1 PUSH1 0xA8 SHL SWAP1 DIV PUSH1 0xFF AND ISZERO PUSH2 0x112D JUMPI PUSH1 0x40 MLOAD PUSH3 0x461BCD PUSH1 0xE5 SHL DUP2 MSTORE PUSH1 0x20 PUSH1 0x4 DUP3 ADD MSTORE PUSH1 0x21 PUSH1 0x24 DUP3 ADD MSTORE PUSH32 0x546F6B656E7320686173206265656E206465706F736974656420616C72656164 PUSH1 0x44 DUP3 ADD MSTORE PUSH1 0x79 PUSH1 0xF8 SHL PUSH1 0x64 DUP3 ADD MSTORE PUSH1 0x84 ADD PUSH2 0x727 JUMP JUMPDEST PUSH1 0x14 DUP1 SLOAD PUSH1 0xFF PUSH1 0xA8 SHL NOT AND PUSH1 0x1 PUSH1 0xA8 SHL OR SWAP1 SSTORE PUSH1 0x15 SLOAD PUSH1 0x13 SLOAD PUSH2 0x115F SWAP2 PUSH1 0x1 PUSH1 0x1 PUSH1 0xA0 SHL SUB SWAP1 SWAP2 AND SWAP1 CALLER SWAP1 ADDRESS SWAP1 PUSH2 0x2068 JUMP JUMPDEST PUSH1 0x15 SLOAD PUSH1 0x40 DUP1 MLOAD SWAP2 DUP3 MSTORE TIMESTAMP PUSH1 0x20 DUP4 ADD MSTORE PUSH32 0x41FB7AD419FC7623DDE1142CD095A12727AA6965AB1D484A6D0D9327403D98BA SWAP2 ADD JUMPDEST PUSH1 0x40 MLOAD DUP1 SWAP2 SUB SWAP1 LOG1 JUMP JUMPDEST PUSH1 0x60 PUSH1 0x11 DUP1 SLOAD DUP1 PUSH1 0x20 MUL PUSH1 0x20 ADD PUSH1 0x40 MLOAD SWAP1 DUP2 ADD PUSH1 0x40 MSTORE DUP1 SWAP3 SWAP2 SWAP1 DUP2 DUP2 MSTORE PUSH1 0x20 ADD DUP3 DUP1 SLOAD DUP1 ISZERO PUSH2 0x6ED JUMPI PUSH1 0x20 MUL DUP3 ADD SWAP2 SWAP1 PUSH1 0x0 MSTORE PUSH1 0x20 PUSH1 0x0 KECCAK256 SWAP1 DUP2 SLOAD DUP2 MSTORE PUSH1 0x20 ADD SWAP1 PUSH1 0x1 ADD SWAP1 DUP1 DUP4 GT PUSH2 0x6D9 JUMPI POP POP POP POP POP SWAP1 POP SWAP1 JUMP JUMPDEST PUSH1 0x12 SLOAD PUSH1 0x1 PUSH1 0x1 PUSH1 0xA0 SHL SUB AND CALLER EQ PUSH2 0x121D JUMPI PUSH1 0x40 MLOAD PUSH3 0x461BCD PUSH1 0xE5 SHL DUP2 MSTORE PUSH1 0x4 ADD PUSH2 0x727 SWAP1 PUSH2 0x2940 JUMP JUMPDEST TIMESTAMP DUP3 LT ISZERO DUP1 ISZERO PUSH2 0x122C JUMPI POP DUP2 DUP2 GT JUMPDEST PUSH2 0x1235 JUMPI PUSH1 0x0 DUP1 REVERT JUMPDEST PUSH1 0x17 DUP3 SWAP1 SSTORE PUSH1 0x18 DUP2 SWAP1 SSTORE PUSH1 0x40 MLOAD TIMESTAMP DUP2 MSTORE PUSH32 0x95A21281108B566135DDAA849F46AC5EDEE2287699CE9443AC1490705CD63D77 SWAP1 PUSH1 0x20 ADD PUSH2 0xFFB JUMP JUMPDEST PUSH1 0x11 DUP2 DUP2 SLOAD DUP2 LT PUSH2 0x127F JUMPI PUSH1 0x0 DUP1 REVERT JUMPDEST PUSH1 0x0 SWAP2 DUP3 MSTORE PUSH1 0x20 SWAP1 SWAP2 KECCAK256 ADD SLOAD SWAP1 POP DUP2 JUMP JUMPDEST PUSH1 0x12 SLOAD PUSH1 0x1 PUSH1 0x1 PUSH1 0xA0 SHL SUB AND CALLER EQ PUSH2 0x12BA JUMPI PUSH1 0x40 MLOAD PUSH3 0x461BCD PUSH1 0xE5 SHL DUP2 MSTORE PUSH1 0x4 ADD PUSH2 0x727 SWAP1 PUSH2 0x2940 JUMP JUMPDEST PUSH1 0x0 PUSH1 0xD SLOAD GT PUSH2 0x130C JUMPI PUSH1 0x40 MLOAD PUSH3 0x461BCD PUSH1 0xE5 SHL DUP2 MSTORE PUSH1 0x20 PUSH1 0x4 DUP3 ADD MSTORE PUSH1 0x1B PUSH1 0x24 DUP3 ADD MSTORE PUSH32 0x56657374696E6720656E642064617465206973206E6F74207365740000000000 PUSH1 0x44 DUP3 ADD MSTORE PUSH1 0x64 ADD PUSH2 0x727 JUMP JUMPDEST PUSH1 0xD SLOAD TIMESTAMP LT ISZERO PUSH2 0x1369 JUMPI PUSH1 0x40 MLOAD PUSH3 0x461BCD PUSH1 0xE5 SHL DUP2 MSTORE PUSH1 0x20 PUSH1 0x4 DUP3 ADD MSTORE PUSH1 0x22 PUSH1 0x24 DUP3 ADD MSTORE PUSH32 0x56657374696E6720706572696F64206973206E6F742066696E69736865642079 PUSH1 0x44 DUP3 ADD MSTORE PUSH2 0x195D PUSH1 0xF2 SHL PUSH1 0x64 DUP3 ADD MSTORE PUSH1 0x84 ADD PUSH2 0x727 JUMP JUMPDEST PUSH1 0x1B SLOAD PUSH1 0xFF AND ISZERO PUSH2 0x13BC JUMPI PUSH1 0x40 MLOAD PUSH3 0x461BCD PUSH1 0xE5 SHL DUP2 MSTORE PUSH1 0x20 PUSH1 0x4 DUP3 ADD MSTORE PUSH1 0x1A PUSH1 0x24 DUP3 ADD MSTORE PUSH32 0x4C6566746F76657220616C72656164792077697468647261776E000000000000 PUSH1 0x44 DUP3 ADD MSTORE PUSH1 0x64 ADD PUSH2 0x727 JUMP JUMPDEST PUSH1 0x16 SLOAD PUSH1 0x15 SLOAD PUSH1 0x0 SWAP2 PUSH2 0x13CF SWAP2 SWAP1 PUSH2 0x20A6 JUMP JUMPDEST SWAP1 POP PUSH1 0x0 DUP2 GT PUSH2 0x13F1 JUMPI PUSH1 0x40 MLOAD PUSH3 0x461BCD PUSH1 0xE5 SHL DUP2 MSTORE PUSH1 0x4 ADD PUSH2 0x727 SWAP1 PUSH2 0x2977 JUMP JUMPDEST PUSH1 0x1B DUP1 SLOAD PUSH1 0xFF NOT AND PUSH1 0x1 OR SWAP1 SSTORE PUSH1 0x13 SLOAD PUSH2 0x1415 SWAP1 PUSH1 0x1 PUSH1 0x1 PUSH1 0xA0 SHL SUB AND CALLER DUP4 PUSH2 0x2000 JUMP JUMPDEST PUSH1 0x40 DUP1 MLOAD DUP3 DUP2 MSTORE TIMESTAMP PUSH1 0x20 DUP3 ADD MSTORE PUSH32 0x916DF0289CD11709C23D76B058E49F450D9166358632288D463FB94A6EB4F534 SWAP2 ADD PUSH2 0xD98 JUMP JUMPDEST PUSH1 0x12 SLOAD PUSH1 0x1 PUSH1 0x1 PUSH1 0xA0 SHL SUB AND CALLER EQ PUSH2 0x1474 JUMPI PUSH1 0x40 MLOAD PUSH3 0x461BCD PUSH1 0xE5 SHL DUP2 MSTORE PUSH1 0x4 ADD PUSH2 0x727 SWAP1 PUSH2 0x2940 JUMP JUMPDEST PUSH2 0x147E DUP3 DUP3 PUSH2 0x20B2 JUMP JUMPDEST POP POP JUMP JUMPDEST PUSH1 0x19 SLOAD TIMESTAMP LT DUP1 ISZERO SWAP1 PUSH2 0x1496 JUMPI POP PUSH1 0x1A SLOAD TIMESTAMP GT ISZERO JUMPDEST PUSH2 0x14B2 JUMPI PUSH1 0x40 MLOAD PUSH3 0x461BCD PUSH1 0xE5 SHL DUP2 MSTORE PUSH1 0x4 ADD PUSH2 0x727 SWAP1 PUSH2 0x2A0A JUMP JUMPDEST PUSH1 0x12 SLOAD PUSH1 0x1 PUSH1 0x1 PUSH1 0xA0 SHL SUB AND CALLER EQ PUSH2 0x14DC JUMPI PUSH1 0x40 MLOAD PUSH3 0x461BCD PUSH1 0xE5 SHL DUP2 MSTORE PUSH1 0x4 ADD PUSH2 0x727 SWAP1 PUSH2 0x2940 JUMP JUMPDEST PUSH1 0x0 DUP2 MLOAD GT PUSH2 0x14FD JUMPI PUSH1 0x40 MLOAD PUSH3 0x461BCD PUSH1 0xE5 SHL DUP2 MSTORE PUSH1 0x4 ADD PUSH2 0x727 SWAP1 PUSH2 0x2A57 JUMP JUMPDEST PUSH1 0x0 JUMPDEST DUP2 MLOAD DUP2 LT ISZERO PUSH2 0x1581 JUMPI PUSH1 0x5 PUSH1 0x0 DUP4 DUP4 DUP2 MLOAD DUP2 LT PUSH2 0x151F JUMPI PUSH2 0x151F PUSH2 0x29AE JUMP JUMPDEST PUSH1 0x20 SWAP1 DUP2 MUL SWAP2 SWAP1 SWAP2 ADD DUP2 ADD MLOAD PUSH1 0x1 PUSH1 0x1 PUSH1 0xA0 SHL SUB AND DUP3 MSTORE DUP2 ADD SWAP2 SWAP1 SWAP2 MSTORE PUSH1 0x40 ADD PUSH1 0x0 KECCAK256 PUSH1 0x1 ADD SLOAD PUSH1 0xFF AND PUSH2 0x156F JUMPI PUSH2 0x156F DUP3 DUP3 DUP2 MLOAD DUP2 LT PUSH2 0x1562 JUMPI PUSH2 0x1562 PUSH2 0x29AE JUMP JUMPDEST PUSH1 0x20 MUL PUSH1 0x20 ADD ADD MLOAD PUSH2 0x2179 JUMP JUMPDEST DUP1 PUSH2 0x1579 DUP2 PUSH2 0x29DA JUMP JUMPDEST SWAP2 POP POP PUSH2 0x1500 JUMP JUMPDEST POP PUSH1 0x40 MLOAD TIMESTAMP DUP2 MSTORE PUSH32 0x525C1DD4BBE6D5F1E1980AD2FD520CF4BF3FAA64B1338EBC569E2217CBA99C74 SWAP1 PUSH1 0x20 ADD PUSH2 0xD98 JUMP JUMPDEST PUSH1 0x12 SLOAD PUSH1 0x1 PUSH1 0x1 PUSH1 0xA0 SHL SUB AND CALLER EQ PUSH2 0x15DC JUMPI PUSH1 0x40 MLOAD PUSH3 0x461BCD PUSH1 0xE5 SHL DUP2 MSTORE PUSH1 0x4 ADD PUSH2 0x727 SWAP1 PUSH2 0x2940 JUMP JUMPDEST PUSH1 0x17 SLOAD TIMESTAMP LT PUSH2 0x1664 JUMPI PUSH1 0x40 MLOAD PUSH3 0x461BCD PUSH1 0xE5 SHL DUP2 MSTORE PUSH1 0x20 PUSH1 0x4 DUP3 ADD MSTORE PUSH1 0x48 PUSH1 0x24 DUP3 ADD MSTORE PUSH32 0x53657420726567697374726174696F6E20666565206973206E6F7420706F7373 PUSH1 0x44 DUP3 ADD MSTORE PUSH32 0x69626C65207768696C6520726567697374726174696F6E20726F756E64206973 PUSH1 0x64 DUP3 ADD MSTORE PUSH8 0x2072756E6E696E67 PUSH1 0xC0 SHL PUSH1 0x84 DUP3 ADD MSTORE PUSH1 0xA4 ADD PUSH2 0x727 JUMP JUMPDEST PUSH1 0xA DUP2 SWAP1 SSTORE PUSH1 0x40 DUP1 MLOAD DUP3 DUP2 MSTORE TIMESTAMP PUSH1 0x20 DUP3 ADD MSTORE PUSH32 0xBE7CB011E7AC160D289DB2C3C69E6045D32BCA222D4729F8409ABBDFE7D6DD49 SWAP2 ADD PUSH2 0xD98 JUMP JUMPDEST PUSH1 0x17 SLOAD TIMESTAMP LT DUP1 ISZERO SWAP1 PUSH2 0x16B2 JUMPI POP PUSH1 0x18 SLOAD TIMESTAMP GT ISZERO JUMPDEST PUSH2 0x16CE JUMPI PUSH1 0x40 MLOAD PUSH3 0x461BCD PUSH1 0xE5 SHL DUP2 MSTORE PUSH1 0x4 ADD PUSH2 0x727 SWAP1 PUSH2 0x28F3 JUMP JUMPDEST PUSH1 0x12 SLOAD PUSH1 0x1 PUSH1 0x1 PUSH1 0xA0 SHL SUB AND CALLER EQ PUSH2 0x16F8 JUMPI PUSH1 0x40 MLOAD PUSH3 0x461BCD PUSH1 0xE5 SHL DUP2 MSTORE PUSH1 0x4 ADD PUSH2 0x727 SWAP1 PUSH2 0x2940 JUMP JUMPDEST PUSH1 0x0 DUP2 MLOAD GT PUSH2 0x1719 JUMPI PUSH1 0x40 MLOAD PUSH3 0x461BCD PUSH1 0xE5 SHL DUP2 MSTORE PUSH1 0x4 ADD PUSH2 0x727 SWAP1 PUSH2 0x2A57 JUMP JUMPDEST PUSH1 0x0 JUMPDEST DUP2 MLOAD DUP2 LT ISZERO PUSH2 0x179D JUMPI PUSH1 0x2 PUSH1 0x0 DUP4 DUP4 DUP2 MLOAD DUP2 LT PUSH2 0x173B JUMPI PUSH2 0x173B PUSH2 0x29AE JUMP JUMPDEST PUSH1 0x20 SWAP1 DUP2 MUL SWAP2 SWAP1 SWAP2 ADD DUP2 ADD MLOAD PUSH1 0x1 PUSH1 0x1 PUSH1 0xA0 SHL SUB AND DUP3 MSTORE DUP2 ADD SWAP2 SWAP1 SWAP2 MSTORE PUSH1 0x40 ADD PUSH1 0x0 KECCAK256 PUSH1 0x2 ADD SLOAD PUSH1 0xFF AND PUSH2 0x178B JUMPI PUSH2 0x178B DUP3 DUP3 DUP2 MLOAD DUP2 LT PUSH2 0x177E JUMPI PUSH2 0x177E PUSH2 0x29AE JUMP JUMPDEST PUSH1 0x20 MUL PUSH1 0x20 ADD ADD MLOAD PUSH2 0x1F07 JUMP JUMPDEST DUP1 PUSH2 0x1795 DUP2 PUSH2 0x29DA JUMP JUMPDEST SWAP2 POP POP PUSH2 0x171C JUMP JUMPDEST POP PUSH1 0x40 MLOAD TIMESTAMP DUP2 MSTORE PUSH32 0x3ED3FF891AF065B7AECB80D2D3E0543AFD07E2B38E36D9E98700FEEBF26482B3 SWAP1 PUSH1 0x20 ADD PUSH2 0xD98 JUMP JUMPDEST PUSH1 0x19 SLOAD TIMESTAMP LT DUP1 ISZERO SWAP1 PUSH2 0x17E2 JUMPI POP PUSH1 0x1A SLOAD TIMESTAMP GT ISZERO JUMPDEST PUSH2 0x17FE JUMPI PUSH1 0x40 MLOAD PUSH3 0x461BCD PUSH1 0xE5 SHL DUP2 MSTORE PUSH1 0x4 ADD PUSH2 0x727 SWAP1 PUSH2 0x2A0A JUMP JUMPDEST PUSH2 0x69D CALLER PUSH2 0x2179 JUMP JUMPDEST PUSH1 0x12 SLOAD PUSH1 0x1 PUSH1 0x1 PUSH1 0xA0 SHL SUB AND CALLER EQ PUSH2 0x1831 JUMPI PUSH1 0x40 MLOAD PUSH3 0x461BCD PUSH1 0xE5 SHL DUP2 MSTORE PUSH1 0x4 ADD PUSH2 0x727 SWAP1 PUSH2 0x2940 JUMP JUMPDEST PUSH1 0x0 DUP2 MLOAD GT PUSH2 0x18A1 JUMPI PUSH1 0x40 MLOAD PUSH3 0x461BCD PUSH1 0xE5 SHL DUP2 MSTORE PUSH1 0x20 PUSH1 0x4 DUP3 ADD MSTORE PUSH1 0x36 PUSH1 0x24 DUP3 ADD MSTORE PUSH32 0x54686520616C6C6F636174696F6E206172726179206D75737420636F6E746169 PUSH1 0x44 DUP3 ADD MSTORE PUSH22 0x1B881BDB9948195B195B595B9D08185D081B19585CDD PUSH1 0x52 SHL PUSH1 0x64 DUP3 ADD MSTORE PUSH1 0x84 ADD PUSH2 0x727 JUMP JUMPDEST PUSH1 0x0 JUMPDEST DUP2 MLOAD DUP2 LT ISZERO PUSH2 0x147E JUMPI PUSH1 0x0 DUP3 DUP3 DUP2 MLOAD DUP2 LT PUSH2 0x18C1 JUMPI PUSH2 0x18C1 PUSH2 0x29AE JUMP JUMPDEST PUSH1 0x20 MUL PUSH1 0x20 ADD ADD MLOAD SWAP1 POP PUSH2 0x18DD DUP2 PUSH1 0x0 ADD MLOAD DUP3 PUSH1 0x20 ADD MLOAD PUSH2 0x20B2 JUMP JUMPDEST POP DUP1 PUSH2 0x18E8 DUP2 PUSH2 0x29DA JUMP JUMPDEST SWAP2 POP POP PUSH2 0x18A4 JUMP JUMPDEST PUSH1 0x12 SLOAD PUSH1 0x1 PUSH1 0x1 PUSH1 0xA0 SHL SUB AND CALLER EQ PUSH2 0x191A JUMPI PUSH1 0x40 MLOAD PUSH3 0x461BCD PUSH1 0xE5 SHL DUP2 MSTORE PUSH1 0x4 ADD PUSH2 0x727 SWAP1 PUSH2 0x2940 JUMP JUMPDEST PUSH1 0x18 SLOAD TIMESTAMP LT ISZERO PUSH2 0x197B JUMPI PUSH1 0x40 MLOAD PUSH3 0x461BCD PUSH1 0xE5 SHL DUP2 MSTORE PUSH1 0x20 PUSH1 0x4 DUP3 ADD MSTORE PUSH1 0x26 PUSH1 0x24 DUP3 ADD MSTORE PUSH32 0x526567697374726174696F6E20726F756E64206973206E6F742066696E697368 PUSH1 0x44 DUP3 ADD MSTORE PUSH6 0x1959081E595D PUSH1 0xD2 SHL PUSH1 0x64 DUP3 ADD MSTORE PUSH1 0x84 ADD PUSH2 0x727 JUMP JUMPDEST PUSH1 0xC SLOAD PUSH1 0xFF AND ISZERO PUSH2 0x19D9 JUMPI PUSH1 0x40 MLOAD PUSH3 0x461BCD PUSH1 0xE5 SHL DUP2 MSTORE PUSH1 0x20 PUSH1 0x4 DUP3 ADD MSTORE PUSH1 0x22 PUSH1 0x24 DUP3 ADD MSTORE PUSH32 0x526567697374726174696F6E2066656520616C72656164792077697468647261 PUSH1 0x44 DUP3 ADD MSTORE PUSH2 0x3BB7 PUSH1 0xF1 SHL PUSH1 0x64 DUP3 ADD MSTORE PUSH1 0x84 ADD PUSH2 0x727 JUMP JUMPDEST PUSH1 0x0 PUSH1 0xB SLOAD GT PUSH2 0x19FB JUMPI PUSH1 0x40 MLOAD PUSH3 0x461BCD PUSH1 0xE5 SHL DUP2 MSTORE PUSH1 0x4 ADD PUSH2 0x727 SWAP1 PUSH2 0x2977 JUMP JUMPDEST PUSH1 0xC DUP1 SLOAD PUSH1 0xFF NOT AND PUSH1 0x1 OR SWAP1 SSTORE PUSH1 0xB SLOAD PUSH1 0x40 MLOAD CALLER SWAP2 DUP1 ISZERO PUSH2 0x8FC MUL SWAP2 PUSH1 0x0 DUP2 DUP2 DUP2 DUP6 DUP9 DUP9 CALL SWAP4 POP POP POP POP ISZERO DUP1 ISZERO PUSH2 0x1A36 JUMPI RETURNDATASIZE PUSH1 0x0 DUP1 RETURNDATACOPY RETURNDATASIZE PUSH1 0x0 REVERT JUMPDEST POP PUSH1 0x0 PUSH1 0xB DUP2 SWAP1 SSTORE PUSH1 0x40 DUP1 MLOAD SWAP2 DUP3 MSTORE TIMESTAMP PUSH1 0x20 DUP4 ADD MSTORE PUSH32 0xA86D3615ABD799FBAA5BE89D4941A68641AEC3F02B8F19FAFF5DFADE02817BC SWAP2 ADD PUSH2 0x1193 JUMP JUMPDEST PUSH1 0x60 PUSH1 0x0 PUSH1 0x1 SLOAD PUSH8 0xFFFFFFFFFFFFFFFF DUP2 GT ISZERO PUSH2 0x1A92 JUMPI PUSH2 0x1A92 PUSH2 0x2651 JUMP JUMPDEST PUSH1 0x40 MLOAD SWAP1 DUP1 DUP3 MSTORE DUP1 PUSH1 0x20 MUL PUSH1 0x20 ADD DUP3 ADD PUSH1 0x40 MSTORE DUP1 ISZERO PUSH2 0x1ABB JUMPI DUP2 PUSH1 0x20 ADD PUSH1 0x20 DUP3 MUL DUP1 CALLDATASIZE DUP4 CALLDATACOPY ADD SWAP1 POP JUMPDEST POP SWAP1 POP PUSH1 0x0 JUMPDEST PUSH1 0x1 SLOAD DUP2 LT ISZERO PUSH2 0xB75 JUMPI PUSH1 0x0 DUP2 DUP2 MSTORE PUSH1 0x20 DUP2 SWAP1 MSTORE PUSH1 0x40 SWAP1 KECCAK256 SLOAD DUP3 MLOAD PUSH1 0x1 PUSH1 0x1 PUSH1 0xA0 SHL SUB SWAP1 SWAP2 AND SWAP1 DUP2 SWAP1 DUP5 SWAP1 DUP5 SWAP1 DUP2 LT PUSH2 0x1AFC JUMPI PUSH2 0x1AFC PUSH2 0x29AE JUMP JUMPDEST PUSH1 0x1 PUSH1 0x1 PUSH1 0xA0 SHL SUB SWAP1 SWAP3 AND PUSH1 0x20 SWAP3 DUP4 MUL SWAP2 SWAP1 SWAP2 ADD SWAP1 SWAP2 ADD MSTORE POP DUP1 PUSH2 0x1B1F DUP2 PUSH2 0x29DA JUMP JUMPDEST SWAP2 POP POP PUSH2 0x1AC1 JUMP JUMPDEST PUSH1 0x10 DUP2 DUP2 SLOAD DUP2 LT PUSH2 0x127F JUMPI PUSH1 0x0 DUP1 REVERT JUMPDEST PUSH1 0x12 SLOAD PUSH1 0x1 PUSH1 0x1 PUSH1 0xA0 SHL SUB AND CALLER EQ PUSH2 0x1B61 JUMPI PUSH1 0x40 MLOAD PUSH3 0x461BCD PUSH1 0xE5 SHL DUP2 MSTORE PUSH1 0x4 ADD PUSH2 0x727 SWAP1 PUSH2 0x2940 JUMP JUMPDEST PUSH1 0x11 SLOAD ISZERO DUP1 ISZERO PUSH2 0x1B71 JUMPI POP PUSH1 0x10 SLOAD ISZERO JUMPDEST PUSH2 0x1BBD JUMPI PUSH1 0x40 MLOAD PUSH3 0x461BCD PUSH1 0xE5 SHL DUP2 MSTORE PUSH1 0x20 PUSH1 0x4 DUP3 ADD MSTORE PUSH1 0x1E PUSH1 0x24 DUP3 ADD MSTORE PUSH32 0x56657374696E6720706172616D657465727320616C7265616479207365740000 PUSH1 0x44 DUP3 ADD MSTORE PUSH1 0x64 ADD PUSH2 0x727 JUMP JUMPDEST DUP1 MLOAD DUP3 MLOAD EQ PUSH2 0x1C42 JUMPI PUSH1 0x40 MLOAD PUSH3 0x461BCD PUSH1 0xE5 SHL DUP2 MSTORE PUSH1 0x20 PUSH1 0x4 DUP3 ADD MSTORE PUSH1 0x44 PUSH1 0x24 DUP3 ADD DUP2 SWAP1 MSTORE PUSH32 0x556E6C6F636B696E672054696D6573206C656E677468206D7573742062652065 SWAP1 DUP3 ADD MSTORE PUSH32 0x7175616C20776974682050657263656E742050657220506F7274696F6E206C65 PUSH1 0x64 DUP3 ADD MSTORE PUSH4 0xDCCEE8D PUSH1 0xE3 SHL PUSH1 0x84 DUP3 ADD MSTORE PUSH1 0xA4 ADD PUSH2 0x727 JUMP JUMPDEST PUSH1 0x14 SLOAD PUSH1 0x1 PUSH1 0xA0 SHL SWAP1 DIV PUSH1 0xFF AND PUSH2 0x1C9B JUMPI PUSH1 0x40 MLOAD PUSH3 0x461BCD PUSH1 0xE5 SHL DUP2 MSTORE PUSH1 0x20 PUSH1 0x4 DUP3 ADD MSTORE PUSH1 0x1B PUSH1 0x24 DUP3 ADD MSTORE PUSH32 0x446973747269627574696F6E206973206E6F7420637265617465640000000000 PUSH1 0x44 DUP3 ADD MSTORE PUSH1 0x64 ADD PUSH2 0x727 JUMP JUMPDEST PUSH1 0x19 PUSH1 0x1 ADD SLOAD DUP3 PUSH1 0x0 DUP2 MLOAD DUP2 LT PUSH2 0x1CB4 JUMPI PUSH2 0x1CB4 PUSH2 0x29AE JUMP JUMPDEST PUSH1 0x20 MUL PUSH1 0x20 ADD ADD MLOAD GT PUSH2 0x1D21 JUMPI PUSH1 0x40 MLOAD PUSH3 0x461BCD PUSH1 0xE5 SHL DUP2 MSTORE PUSH1 0x20 PUSH1 0x4 DUP3 ADD MSTORE PUSH1 0x2F PUSH1 0x24 DUP3 ADD MSTORE PUSH32 0x556E6C6F636B2074696D65206D75737420626520616674657220746865206469 PUSH1 0x44 DUP3 ADD MSTORE PUSH15 0x73747269627574696F6E20656E6473 PUSH1 0x88 SHL PUSH1 0x64 DUP3 ADD MSTORE PUSH1 0x84 ADD PUSH2 0x727 JUMP JUMPDEST PUSH1 0x0 DUP1 JUMPDEST DUP4 MLOAD DUP2 LT ISZERO PUSH2 0x1E7D JUMPI DUP1 ISZERO PUSH2 0x1DD1 JUMPI DUP4 PUSH2 0x1D40 PUSH1 0x1 DUP4 PUSH2 0x29F3 JUMP JUMPDEST DUP2 MLOAD DUP2 LT PUSH2 0x1D50 JUMPI PUSH2 0x1D50 PUSH2 0x29AE JUMP JUMPDEST PUSH1 0x20 MUL PUSH1 0x20 ADD ADD MLOAD DUP5 DUP3 DUP2 MLOAD DUP2 LT PUSH2 0x1D6A JUMPI PUSH2 0x1D6A PUSH2 0x29AE JUMP JUMPDEST PUSH1 0x20 MUL PUSH1 0x20 ADD ADD MLOAD GT PUSH2 0x1DD1 JUMPI PUSH1 0x40 MLOAD PUSH3 0x461BCD PUSH1 0xE5 SHL DUP2 MSTORE PUSH1 0x20 PUSH1 0x4 DUP3 ADD MSTORE PUSH1 0x29 PUSH1 0x24 DUP3 ADD MSTORE PUSH32 0x556E6C6F636B2074696D65206D7573742062652067726561746572207468616E PUSH1 0x44 DUP3 ADD MSTORE PUSH9 0x2070726576696F7573 PUSH1 0xB8 SHL PUSH1 0x64 DUP3 ADD MSTORE PUSH1 0x84 ADD PUSH2 0x727 JUMP JUMPDEST PUSH1 0x10 DUP5 DUP3 DUP2 MLOAD DUP2 LT PUSH2 0x1DE5 JUMPI PUSH2 0x1DE5 PUSH2 0x29AE JUMP JUMPDEST PUSH1 0x20 SWAP1 DUP2 MUL SWAP2 SWAP1 SWAP2 ADD DUP2 ADD MLOAD DUP3 SLOAD PUSH1 0x1 DUP2 ADD DUP5 SSTORE PUSH1 0x0 SWAP4 DUP5 MSTORE SWAP2 SWAP1 SWAP3 KECCAK256 ADD SSTORE DUP3 MLOAD PUSH1 0x11 SWAP1 DUP5 SWAP1 DUP4 SWAP1 DUP2 LT PUSH2 0x1E1B JUMPI PUSH2 0x1E1B PUSH2 0x29AE JUMP JUMPDEST PUSH1 0x20 SWAP1 DUP2 MUL SWAP2 SWAP1 SWAP2 ADD DUP2 ADD MLOAD DUP3 SLOAD PUSH1 0x1 DUP2 ADD DUP5 SSTORE PUSH1 0x0 SWAP4 DUP5 MSTORE SWAP2 SWAP1 SWAP3 KECCAK256 ADD SSTORE DUP3 MLOAD PUSH2 0x1E69 SWAP1 DUP5 SWAP1 DUP4 SWAP1 DUP2 LT PUSH2 0x1E52 JUMPI PUSH2 0x1E52 PUSH2 0x29AE JUMP JUMPDEST PUSH1 0x20 MUL PUSH1 0x20 ADD ADD MLOAD DUP4 PUSH2 0x1FF4 SWAP1 SWAP2 SWAP1 PUSH4 0xFFFFFFFF AND JUMP JUMPDEST SWAP2 POP DUP1 PUSH2 0x1E75 DUP2 PUSH2 0x29DA JUMP JUMPDEST SWAP2 POP POP PUSH2 0x1D25 JUMP JUMPDEST POP DUP1 PUSH1 0xE SLOAD EQ PUSH2 0x1ECF JUMPI PUSH1 0x40 MLOAD PUSH3 0x461BCD PUSH1 0xE5 SHL DUP2 MSTORE PUSH1 0x20 PUSH1 0x4 DUP3 ADD MSTORE PUSH1 0x18 PUSH1 0x24 DUP3 ADD MSTORE PUSH32 0x507265636973696F6E2070657263656E74732069737375650000000000000000 PUSH1 0x44 DUP3 ADD MSTORE PUSH1 0x64 ADD PUSH2 0x727 JUMP JUMPDEST PUSH1 0x40 MLOAD TIMESTAMP DUP2 MSTORE PUSH32 0x1AF3C14CE558C4A33618E1F36C8EA383FC552A672298056311FA66518719F6E0 SWAP1 PUSH1 0x20 ADD PUSH1 0x40 MLOAD DUP1 SWAP2 SUB SWAP1 LOG1 POP POP POP JUMP JUMPDEST PUSH1 0x40 DUP1 MLOAD PUSH1 0x60 DUP2 ADD DUP3 MSTORE TIMESTAMP DUP2 MSTORE PUSH1 0x0 PUSH1 0x20 DUP1 DUP4 ADD DUP3 DUP2 MSTORE PUSH1 0x1 DUP5 DUP7 ADD DUP2 DUP2 MSTORE PUSH1 0x1 PUSH1 0x1 PUSH1 0xA0 SHL SUB DUP9 AND DUP1 DUP7 MSTORE PUSH1 0x2 DUP1 DUP7 MSTORE DUP9 DUP8 KECCAK256 SWAP8 MLOAD DUP9 SSTORE SWAP4 MLOAD SWAP3 DUP8 ADD SWAP3 SWAP1 SWAP3 SSTORE MLOAD SWAP5 SWAP1 SWAP2 ADD DUP1 SLOAD PUSH1 0xFF NOT AND SWAP5 ISZERO ISZERO SWAP5 SWAP1 SWAP5 OR SWAP1 SWAP4 SSTORE PUSH1 0x4 DUP1 SLOAD DUP4 MSTORE PUSH1 0x3 SWAP1 SWAP2 MSTORE SWAP3 DUP2 KECCAK256 DUP1 SLOAD PUSH1 0x1 PUSH1 0x1 PUSH1 0xA0 SHL SUB NOT AND SWAP1 SWAP3 OR SWAP1 SWAP2 SSTORE DUP2 SLOAD SWAP2 SWAP1 PUSH2 0x1F8A DUP4 PUSH2 0x29DA JUMP JUMPDEST SWAP2 SWAP1 POP SSTORE POP DUP1 PUSH1 0x1 PUSH1 0x1 PUSH1 0xA0 SHL SUB AND PUSH32 0xE29D35093005F4D575E1003753426B57A7F64378BA73332EEF9C6CCC2B8DECD6 TIMESTAMP PUSH1 0x40 MLOAD PUSH2 0x1FCA SWAP2 DUP2 MSTORE PUSH1 0x20 ADD SWAP1 JUMP JUMPDEST PUSH1 0x40 MLOAD DUP1 SWAP2 SUB SWAP1 LOG2 POP JUMP JUMPDEST PUSH1 0x0 PUSH2 0x1FE1 DUP3 DUP5 PUSH2 0x2AAC JUMP JUMPDEST SWAP4 SWAP3 POP POP POP JUMP JUMPDEST PUSH1 0x0 PUSH2 0x1FE1 DUP3 DUP5 PUSH2 0x2ACB JUMP JUMPDEST PUSH1 0x0 PUSH2 0x1FE1 DUP3 DUP5 PUSH2 0x2AED JUMP JUMPDEST PUSH1 0x40 MLOAD PUSH1 0x1 PUSH1 0x1 PUSH1 0xA0 SHL SUB DUP4 AND PUSH1 0x24 DUP3 ADD MSTORE PUSH1 0x44 DUP2 ADD DUP3 SWAP1 MSTORE PUSH2 0x2063 SWAP1 DUP5 SWAP1 PUSH4 0xA9059CBB PUSH1 0xE0 SHL SWAP1 PUSH1 0x64 ADD JUMPDEST PUSH1 0x40 DUP1 MLOAD PUSH1 0x1F NOT DUP2 DUP5 SUB ADD DUP2 MSTORE SWAP2 SWAP1 MSTORE PUSH1 0x20 DUP2 ADD DUP1 MLOAD PUSH1 0x1 PUSH1 0x1 PUSH1 0xE0 SHL SUB AND PUSH1 0x1 PUSH1 0x1 PUSH1 0xE0 SHL SUB NOT SWAP1 SWAP4 AND SWAP3 SWAP1 SWAP3 OR SWAP1 SWAP2 MSTORE PUSH2 0x2297 JUMP JUMPDEST POP POP POP JUMP JUMPDEST PUSH1 0x40 MLOAD PUSH1 0x1 PUSH1 0x1 PUSH1 0xA0 SHL SUB DUP1 DUP6 AND PUSH1 0x24 DUP4 ADD MSTORE DUP4 AND PUSH1 0x44 DUP3 ADD MSTORE PUSH1 0x64 DUP2 ADD DUP3 SWAP1 MSTORE PUSH2 0x20A0 SWAP1 DUP6 SWAP1 PUSH4 0x23B872DD PUSH1 0xE0 SHL SWAP1 PUSH1 0x84 ADD PUSH2 0x202C JUMP JUMPDEST POP POP POP POP JUMP JUMPDEST PUSH1 0x0 PUSH2 0x1FE1 DUP3 DUP5 PUSH2 0x29F3 JUMP JUMPDEST PUSH1 0x1 PUSH1 0x1 PUSH1 0xA0 SHL SUB DUP3 AND PUSH1 0x0 SWAP1 DUP2 MSTORE PUSH1 0x2 PUSH1 0x20 DUP2 SWAP1 MSTORE PUSH1 0x40 SWAP1 SWAP2 KECCAK256 ADD SLOAD PUSH1 0xFF AND PUSH2 0x2129 JUMPI PUSH1 0x40 MLOAD PUSH3 0x461BCD PUSH1 0xE5 SHL DUP2 MSTORE PUSH1 0x20 PUSH1 0x4 DUP3 ADD MSTORE PUSH1 0x22 PUSH1 0x24 DUP3 ADD MSTORE PUSH32 0x50726F76696465642061646472657373206973206E6F74207265676973746572 PUSH1 0x44 DUP3 ADD MSTORE PUSH2 0x1959 PUSH1 0xF2 SHL PUSH1 0x64 DUP3 ADD MSTORE PUSH1 0x84 ADD PUSH2 0x727 JUMP JUMPDEST PUSH1 0x1 PUSH1 0x1 PUSH1 0xA0 SHL SUB DUP3 AND PUSH1 0x0 DUP2 DUP2 MSTORE PUSH1 0x2 PUSH1 0x20 MSTORE PUSH1 0x40 SWAP1 DUP2 SWAP1 KECCAK256 PUSH1 0x1 ADD DUP4 SWAP1 SSTORE MLOAD PUSH32 0x853871DD4FF4467AE0A3797C2A42E5EAB302352599565EEF0619F58B00F2F3D9 SWAP1 PUSH2 0xAB5 SWAP1 TIMESTAMP DUP2 MSTORE PUSH1 0x20 ADD SWAP1 JUMP JUMPDEST PUSH1 0x1 PUSH1 0x1 PUSH1 0xA0 SHL SUB DUP2 AND PUSH1 0x0 SWAP1 DUP2 MSTORE PUSH1 0x5 PUSH1 0x20 MSTORE PUSH1 0x40 SWAP1 KECCAK256 PUSH1 0x1 ADD SLOAD PUSH1 0xFF AND ISZERO PUSH2 0x21E5 JUMPI PUSH1 0x40 MLOAD PUSH3 0x461BCD PUSH1 0xE5 SHL DUP2 MSTORE PUSH1 0x20 PUSH1 0x4 DUP3 ADD MSTORE PUSH1 0x1C PUSH1 0x24 DUP3 ADD MSTORE PUSH32 0x4164647265737320616C72656164792070617274696369706174656400000000 PUSH1 0x44 DUP3 ADD MSTORE PUSH1 0x64 ADD PUSH2 0x727 JUMP JUMPDEST PUSH1 0x40 DUP1 MLOAD DUP1 DUP3 ADD DUP3 MSTORE TIMESTAMP DUP2 MSTORE PUSH1 0x1 PUSH1 0x20 DUP1 DUP4 ADD DUP3 DUP2 MSTORE PUSH1 0x1 PUSH1 0x1 PUSH1 0xA0 SHL SUB DUP7 AND PUSH1 0x0 DUP2 DUP2 MSTORE PUSH1 0x5 DUP5 MSTORE DUP7 DUP2 KECCAK256 SWAP6 MLOAD DUP7 SSTORE SWAP2 MLOAD SWAP5 SWAP1 SWAP4 ADD DUP1 SLOAD PUSH1 0xFF NOT AND SWAP5 ISZERO ISZERO SWAP5 SWAP1 SWAP5 OR SWAP1 SWAP4 SSTORE PUSH1 0x7 DUP1 SLOAD DUP5 MSTORE PUSH1 0x6 SWAP1 SWAP2 MSTORE SWAP3 DUP3 KECCAK256 DUP1 SLOAD PUSH1 0x1 PUSH1 0x1 PUSH1 0xA0 SHL SUB NOT AND SWAP1 SWAP2 OR SWAP1 SSTORE DUP2 SLOAD SWAP2 SWAP1 PUSH2 0x2257 DUP4 PUSH2 0x29DA JUMP JUMPDEST SWAP2 SWAP1 POP SSTORE POP DUP1 PUSH1 0x1 PUSH1 0x1 PUSH1 0xA0 SHL SUB AND PUSH32 0xD00162658A963ED1BFC4FF82D4C5DDF3D2B28835DEA3F61C483CEDA1F59E1971 TIMESTAMP PUSH1 0x40 MLOAD PUSH2 0x1FCA SWAP2 DUP2 MSTORE PUSH1 0x20 ADD SWAP1 JUMP JUMPDEST PUSH1 0x0 PUSH2 0x22EC DUP3 PUSH1 0x40 MLOAD DUP1 PUSH1 0x40 ADD PUSH1 0x40 MSTORE DUP1 PUSH1 0x20 DUP2 MSTORE PUSH1 0x20 ADD PUSH32 0x5361666545524332303A206C6F772D6C6576656C2063616C6C206661696C6564 DUP2 MSTORE POP DUP6 PUSH1 0x1 PUSH1 0x1 PUSH1 0xA0 SHL SUB AND PUSH2 0x2369 SWAP1 SWAP3 SWAP2 SWAP1 PUSH4 0xFFFFFFFF AND JUMP JUMPDEST DUP1 MLOAD SWAP1 SWAP2 POP ISZERO PUSH2 0x2063 JUMPI DUP1 DUP1 PUSH1 0x20 ADD SWAP1 MLOAD DUP2 ADD SWAP1 PUSH2 0x230A SWAP2 SWAP1 PUSH2 0x2B05 JUMP JUMPDEST PUSH2 0x2063 JUMPI PUSH1 0x40 MLOAD PUSH3 0x461BCD PUSH1 0xE5 SHL DUP2 MSTORE PUSH1 0x20 PUSH1 0x4 DUP3 ADD MSTORE PUSH1 0x2A PUSH1 0x24 DUP3 ADD MSTORE PUSH32 0x5361666545524332303A204552433230206F7065726174696F6E20646964206E PUSH1 0x44 DUP3 ADD MSTORE PUSH10 0x1BDD081CDD58D8D95959 PUSH1 0xB2 SHL PUSH1 0x64 DUP3 ADD MSTORE PUSH1 0x84 ADD PUSH2 0x727 JUMP JUMPDEST PUSH1 0x60 PUSH2 0x2378 DUP5 DUP5 PUSH1 0x0 DUP6 PUSH2 0x2380 JUMP JUMPDEST SWAP5 SWAP4 POP POP POP POP JUMP JUMPDEST PUSH1 0x60 DUP3 SELFBALANCE LT ISZERO PUSH2 0x23E1 JUMPI PUSH1 0x40 MLOAD PUSH3 0x461BCD PUSH1 0xE5 SHL DUP2 MSTORE PUSH1 0x20 PUSH1 0x4 DUP3 ADD MSTORE PUSH1 0x26 PUSH1 0x24 DUP3 ADD MSTORE PUSH32 0x416464726573733A20696E73756666696369656E742062616C616E636520666F PUSH1 0x44 DUP3 ADD MSTORE PUSH6 0x1C8818D85B1B PUSH1 0xD2 SHL PUSH1 0x64 DUP3 ADD MSTORE PUSH1 0x84 ADD PUSH2 0x727 JUMP JUMPDEST PUSH1 0x1 PUSH1 0x1 PUSH1 0xA0 SHL SUB DUP6 AND EXTCODESIZE PUSH2 0x2438 JUMPI PUSH1 0x40 MLOAD PUSH3 0x461BCD PUSH1 0xE5 SHL DUP2 MSTORE PUSH1 0x20 PUSH1 0x4 DUP3 ADD MSTORE PUSH1 0x1D PUSH1 0x24 DUP3 ADD MSTORE PUSH32 0x416464726573733A2063616C6C20746F206E6F6E2D636F6E7472616374000000 PUSH1 0x44 DUP3 ADD MSTORE PUSH1 0x64 ADD PUSH2 0x727 JUMP JUMPDEST PUSH1 0x0 DUP1 DUP7 PUSH1 0x1 PUSH1 0x1 PUSH1 0xA0 SHL SUB AND DUP6 DUP8 PUSH1 0x40 MLOAD PUSH2 0x2454 SWAP2 SWAP1 PUSH2 0x2B53 JUMP JUMPDEST PUSH1 0x0 PUSH1 0x40 MLOAD DUP1 DUP4 SUB DUP2 DUP6 DUP8 GAS CALL SWAP3 POP POP POP RETURNDATASIZE DUP1 PUSH1 0x0 DUP2 EQ PUSH2 0x2491 JUMPI PUSH1 0x40 MLOAD SWAP2 POP PUSH1 0x1F NOT PUSH1 0x3F RETURNDATASIZE ADD AND DUP3 ADD PUSH1 0x40 MSTORE RETURNDATASIZE DUP3 MSTORE RETURNDATASIZE PUSH1 0x0 PUSH1 0x20 DUP5 ADD RETURNDATACOPY PUSH2 0x2496 JUMP JUMPDEST PUSH1 0x60 SWAP2 POP JUMPDEST POP SWAP2 POP SWAP2 POP PUSH2 0x24A6 DUP3 DUP3 DUP7 PUSH2 0x24B1 JUMP JUMPDEST SWAP8 SWAP7 POP POP POP POP POP POP POP JUMP JUMPDEST PUSH1 0x60 DUP4 ISZERO PUSH2 0x24C0 JUMPI POP DUP2 PUSH2 0x1FE1 JUMP JUMPDEST DUP3 MLOAD ISZERO PUSH2 0x24D0 JUMPI DUP3 MLOAD DUP1 DUP5 PUSH1 0x20 ADD REVERT JUMPDEST DUP2 PUSH1 0x40 MLOAD PUSH3 0x461BCD PUSH1 0xE5 SHL DUP2 MSTORE PUSH1 0x4 ADD PUSH2 0x727 SWAP2 SWAP1 PUSH2 0x2B6F JUMP JUMPDEST PUSH1 0x0 PUSH1 0x20 DUP3 DUP5 SUB SLT ISZERO PUSH2 0x24FC JUMPI PUSH1 0x0 DUP1 REVERT JUMPDEST POP CALLDATALOAD SWAP2 SWAP1 POP JUMP JUMPDEST PUSH1 0x20 DUP1 DUP3 MSTORE DUP3 MLOAD DUP3 DUP3 ADD DUP2 SWAP1 MSTORE PUSH1 0x0 SWAP2 SWAP1 DUP5 DUP3 ADD SWAP1 PUSH1 0x40 DUP6 ADD SWAP1 DUP5 JUMPDEST DUP2 DUP2 LT ISZERO PUSH2 0x253B JUMPI DUP4 MLOAD DUP4 MSTORE SWAP3 DUP5 ADD SWAP3 SWAP2 DUP5 ADD SWAP2 PUSH1 0x1 ADD PUSH2 0x251F JUMP JUMPDEST POP SWAP1 SWAP7 SWAP6 POP POP POP POP POP POP JUMP JUMPDEST DUP1 CALLDATALOAD PUSH1 0x1 PUSH1 0x1 PUSH1 0xA0 SHL SUB DUP2 AND DUP2 EQ PUSH2 0x255E JUMPI PUSH1 0x0 DUP1 REVERT JUMPDEST SWAP2 SWAP1 POP JUMP JUMPDEST PUSH1 0x0 PUSH1 0x20 DUP3 DUP5 SUB SLT ISZERO PUSH2 0x2575 JUMPI PUSH1 0x0 DUP1 REVERT JUMPDEST PUSH2 0x1FE1 DUP3 PUSH2 0x2547 JUMP JUMPDEST PUSH1 0x20 DUP1 DUP3 MSTORE DUP3 MLOAD DUP3 DUP3 ADD DUP2 SWAP1 MSTORE PUSH1 0x0 SWAP2 SWAP1 DUP5 DUP3 ADD SWAP1 PUSH1 0x40 DUP6 ADD SWAP1 DUP5 JUMPDEST DUP2 DUP2 LT ISZERO PUSH2 0x253B JUMPI DUP4 MLOAD PUSH1 0x1 PUSH1 0x1 PUSH1 0xA0 SHL SUB AND DUP4 MSTORE SWAP3 DUP5 ADD SWAP3 SWAP2 DUP5 ADD SWAP2 PUSH1 0x1 ADD PUSH2 0x259A JUMP JUMPDEST PUSH1 0x0 DUP1 PUSH1 0x0 DUP1 PUSH1 0x80 DUP6 DUP8 SUB SLT ISZERO PUSH2 0x25D5 JUMPI PUSH1 0x0 DUP1 REVERT JUMPDEST DUP5 CALLDATALOAD SWAP4 POP PUSH1 0x20 DUP6 ADD CALLDATALOAD SWAP3 POP PUSH2 0x25EC PUSH1 0x40 DUP7 ADD PUSH2 0x2547 JUMP JUMPDEST SWAP2 POP PUSH2 0x25FA PUSH1 0x60 DUP7 ADD PUSH2 0x2547 JUMP JUMPDEST SWAP1 POP SWAP3 SWAP6 SWAP2 SWAP5 POP SWAP3 POP JUMP JUMPDEST PUSH1 0x0 DUP1 PUSH1 0x40 DUP4 DUP6 SUB SLT ISZERO PUSH2 0x2618 JUMPI PUSH1 0x0 DUP1 REVERT JUMPDEST POP POP DUP1 CALLDATALOAD SWAP3 PUSH1 0x20 SWAP1 SWAP2 ADD CALLDATALOAD SWAP2 POP JUMP JUMPDEST PUSH1 0x0 DUP1 PUSH1 0x40 DUP4 DUP6 SUB SLT ISZERO PUSH2 0x263A JUMPI PUSH1 0x0 DUP1 REVERT JUMPDEST PUSH2 0x2643 DUP4 PUSH2 0x2547 JUMP JUMPDEST SWAP5 PUSH1 0x20 SWAP4 SWAP1 SWAP4 ADD CALLDATALOAD SWAP4 POP POP POP JUMP JUMPDEST PUSH4 0x4E487B71 PUSH1 0xE0 SHL PUSH1 0x0 MSTORE PUSH1 0x41 PUSH1 0x4 MSTORE PUSH1 0x24 PUSH1 0x0 REVERT JUMPDEST PUSH1 0x40 DUP1 MLOAD SWAP1 DUP2 ADD PUSH8 0xFFFFFFFFFFFFFFFF DUP2 GT DUP3 DUP3 LT OR ISZERO PUSH2 0x268A JUMPI PUSH2 0x268A PUSH2 0x2651 JUMP JUMPDEST PUSH1 0x40 MSTORE SWAP1 JUMP JUMPDEST PUSH1 0x40 MLOAD PUSH1 0x1F DUP3 ADD PUSH1 0x1F NOT AND DUP2 ADD PUSH8 0xFFFFFFFFFFFFFFFF DUP2 GT DUP3 DUP3 LT OR ISZERO PUSH2 0x26B9 JUMPI PUSH2 0x26B9 PUSH2 0x2651 JUMP JUMPDEST PUSH1 0x40 MSTORE SWAP2 SWAP1 POP JUMP JUMPDEST PUSH1 0x0 PUSH8 0xFFFFFFFFFFFFFFFF DUP3 GT ISZERO PUSH2 0x26DB JUMPI PUSH2 0x26DB PUSH2 0x2651 JUMP JUMPDEST POP PUSH1 0x5 SHL PUSH1 0x20 ADD SWAP1 JUMP JUMPDEST PUSH1 0x0 PUSH1 0x20 DUP1 DUP4 DUP6 SUB SLT ISZERO PUSH2 0x26F8 JUMPI PUSH1 0x0 DUP1 REVERT JUMPDEST DUP3 CALLDATALOAD PUSH8 0xFFFFFFFFFFFFFFFF DUP2 GT ISZERO PUSH2 0x270F JUMPI PUSH1 0x0 DUP1 REVERT JUMPDEST DUP4 ADD PUSH1 0x1F DUP2 ADD DUP6 SGT PUSH2 0x2720 JUMPI PUSH1 0x0 DUP1 REVERT JUMPDEST DUP1 CALLDATALOAD PUSH2 0x2733 PUSH2 0x272E DUP3 PUSH2 0x26C1 JUMP JUMPDEST PUSH2 0x2690 JUMP JUMPDEST DUP2 DUP2 MSTORE PUSH1 0x5 SWAP2 SWAP1 SWAP2 SHL DUP3 ADD DUP4 ADD SWAP1 DUP4 DUP2 ADD SWAP1 DUP8 DUP4 GT ISZERO PUSH2 0x2752 JUMPI PUSH1 0x0 DUP1 REVERT JUMPDEST SWAP3 DUP5 ADD SWAP3 JUMPDEST DUP3 DUP5 LT ISZERO PUSH2 0x24A6 JUMPI PUSH2 0x2768 DUP5 PUSH2 0x2547 JUMP JUMPDEST DUP3 MSTORE SWAP3 DUP5 ADD SWAP3 SWAP1 DUP5 ADD SWAP1 PUSH2 0x2757 JUMP JUMPDEST PUSH1 0x0 PUSH1 0x20 DUP1 DUP4 DUP6 SUB SLT ISZERO PUSH2 0x278A JUMPI PUSH1 0x0 DUP1 REVERT JUMPDEST DUP3 CALLDATALOAD PUSH8 0xFFFFFFFFFFFFFFFF DUP2 GT ISZERO PUSH2 0x27A1 JUMPI PUSH1 0x0 DUP1 REVERT JUMPDEST DUP4 ADD PUSH1 0x1F DUP2 ADD DUP6 SGT PUSH2 0x27B2 JUMPI PUSH1 0x0 DUP1 REVERT JUMPDEST DUP1 CALLDATALOAD PUSH2 0x27C0 PUSH2 0x272E DUP3 PUSH2 0x26C1 JUMP JUMPDEST DUP2 DUP2 MSTORE PUSH1 0x6 SWAP2 SWAP1 SWAP2 SHL DUP3 ADD DUP4 ADD SWAP1 DUP4 DUP2 ADD SWAP1 DUP8 DUP4 GT ISZERO PUSH2 0x27DF JUMPI PUSH1 0x0 DUP1 REVERT JUMPDEST SWAP3 DUP5 ADD SWAP3 JUMPDEST DUP3 DUP5 LT ISZERO PUSH2 0x24A6 JUMPI PUSH1 0x40 DUP5 DUP10 SUB SLT ISZERO PUSH2 0x27FD JUMPI PUSH1 0x0 DUP1 DUP2 REVERT JUMPDEST PUSH2 0x2805 PUSH2 0x2667 JUMP JUMPDEST PUSH2 0x280E DUP6 PUSH2 0x2547 JUMP JUMPDEST DUP2 MSTORE DUP5 DUP7 ADD CALLDATALOAD DUP7 DUP3 ADD MSTORE DUP3 MSTORE PUSH1 0x40 SWAP1 SWAP4 ADD SWAP3 SWAP1 DUP5 ADD SWAP1 PUSH2 0x27E4 JUMP JUMPDEST PUSH1 0x0 DUP3 PUSH1 0x1F DUP4 ADD SLT PUSH2 0x283A JUMPI PUSH1 0x0 DUP1 REVERT JUMPDEST DUP2 CALLDATALOAD PUSH1 0x20 PUSH2 0x284A PUSH2 0x272E DUP4 PUSH2 0x26C1 JUMP JUMPDEST DUP3 DUP2 MSTORE PUSH1 0x5 SWAP3 SWAP1 SWAP3 SHL DUP5 ADD DUP2 ADD SWAP2 DUP2 DUP2 ADD SWAP1 DUP7 DUP5 GT ISZERO PUSH2 0x2869 JUMPI PUSH1 0x0 DUP1 REVERT JUMPDEST DUP3 DUP7 ADD JUMPDEST DUP5 DUP2 LT ISZERO PUSH2 0x2884 JUMPI DUP1 CALLDATALOAD DUP4 MSTORE SWAP2 DUP4 ADD SWAP2 DUP4 ADD PUSH2 0x286D JUMP JUMPDEST POP SWAP7 SWAP6 POP POP POP POP POP POP JUMP JUMPDEST PUSH1 0x0 DUP1 PUSH1 0x40 DUP4 DUP6 SUB SLT ISZERO PUSH2 0x28A2 JUMPI PUSH1 0x0 DUP1 REVERT JUMPDEST DUP3 CALLDATALOAD PUSH8 0xFFFFFFFFFFFFFFFF DUP1 DUP3 GT ISZERO PUSH2 0x28BA JUMPI PUSH1 0x0 DUP1 REVERT JUMPDEST PUSH2 0x28C6 DUP7 DUP4 DUP8 ADD PUSH2 0x2829 JUMP JUMPDEST SWAP4 POP PUSH1 0x20 DUP6 ADD CALLDATALOAD SWAP2 POP DUP1 DUP3 GT ISZERO PUSH2 0x28DC JUMPI PUSH1 0x0 DUP1 REVERT JUMPDEST POP PUSH2 0x28E9 DUP6 DUP3 DUP7 ADD PUSH2 0x2829 JUMP JUMPDEST SWAP2 POP POP SWAP3 POP SWAP3 SWAP1 POP JUMP JUMPDEST PUSH1 0x20 DUP1 DUP3 MSTORE PUSH1 0x2D SWAP1 DUP3 ADD MSTORE PUSH32 0x526567697374726174696F6E20726F756E64206973206F766572206F72206E6F PUSH1 0x40 DUP3 ADD MSTORE PUSH13 0x1D081CDD185C9D1959081E595D PUSH1 0x9A SHL PUSH1 0x60 DUP3 ADD MSTORE PUSH1 0x80 ADD SWAP1 JUMP JUMPDEST PUSH1 0x20 DUP1 DUP3 MSTORE PUSH1 0x19 SWAP1 DUP3 ADD MSTORE PUSH32 0x416C6C6F77732061646D696E2061646472657373206F6E6C7900000000000000 PUSH1 0x40 DUP3 ADD MSTORE PUSH1 0x60 ADD SWAP1 JUMP JUMPDEST PUSH1 0x20 DUP1 DUP3 MSTORE PUSH1 0x1C SWAP1 DUP3 ADD MSTORE PUSH32 0x5468657265206973206E6F7468696E6720746F20776974686472617700000000 PUSH1 0x40 DUP3 ADD MSTORE PUSH1 0x60 ADD SWAP1 JUMP JUMPDEST PUSH4 0x4E487B71 PUSH1 0xE0 SHL PUSH1 0x0 MSTORE PUSH1 0x32 PUSH1 0x4 MSTORE PUSH1 0x24 PUSH1 0x0 REVERT JUMPDEST PUSH4 0x4E487B71 PUSH1 0xE0 SHL PUSH1 0x0 MSTORE PUSH1 0x11 PUSH1 0x4 MSTORE PUSH1 0x24 PUSH1 0x0 REVERT JUMPDEST PUSH1 0x0 PUSH1 0x1 DUP3 ADD PUSH2 0x29EC JUMPI PUSH2 0x29EC PUSH2 0x29C4 JUMP JUMPDEST POP PUSH1 0x1 ADD SWAP1 JUMP JUMPDEST PUSH1 0x0 DUP3 DUP3 LT ISZERO PUSH2 0x2A05 JUMPI PUSH2 0x2A05 PUSH2 0x29C4 JUMP JUMPDEST POP SUB SWAP1 JUMP JUMPDEST PUSH1 0x20 DUP1 DUP3 MSTORE PUSH1 0x2D SWAP1 DUP3 ADD MSTORE PUSH32 0x446973747269627574696F6E20726F756E64206973206F766572206F72206E6F PUSH1 0x40 DUP3 ADD MSTORE PUSH13 0x1D081CDD185C9D1959081E595D PUSH1 0x9A SHL PUSH1 0x60 DUP3 ADD MSTORE PUSH1 0x80 ADD SWAP1 JUMP JUMPDEST PUSH1 0x20 DUP1 DUP3 MSTORE PUSH1 0x35 SWAP1 DUP3 ADD MSTORE PUSH32 0x54686520616464726573736573206172726179206D75737420636F6E7461696E PUSH1 0x40 DUP3 ADD MSTORE PUSH21 0x81BDB9948195B195B595B9D08185D081B19585CDD PUSH1 0x5A SHL PUSH1 0x60 DUP3 ADD MSTORE PUSH1 0x80 ADD SWAP1 JUMP JUMPDEST PUSH1 0x0 DUP2 PUSH1 0x0 NOT DIV DUP4 GT DUP3 ISZERO ISZERO AND ISZERO PUSH2 0x2AC6 JUMPI PUSH2 0x2AC6 PUSH2 0x29C4 JUMP JUMPDEST POP MUL SWAP1 JUMP JUMPDEST PUSH1 0x0 DUP3 PUSH2 0x2AE8 JUMPI PUSH4 0x4E487B71 PUSH1 0xE0 SHL PUSH1 0x0 MSTORE PUSH1 0x12 PUSH1 0x4 MSTORE PUSH1 0x24 PUSH1 0x0 REVERT JUMPDEST POP DIV SWAP1 JUMP JUMPDEST PUSH1 0x0 DUP3 NOT DUP3 GT ISZERO PUSH2 0x2B00 JUMPI PUSH2 0x2B00 PUSH2 0x29C4 JUMP JUMPDEST POP ADD SWAP1 JUMP JUMPDEST PUSH1 0x0 PUSH1 0x20 DUP3 DUP5 SUB SLT ISZERO PUSH2 0x2B17 JUMPI PUSH1 0x0 DUP1 REVERT JUMPDEST DUP2 MLOAD DUP1 ISZERO ISZERO DUP2 EQ PUSH2 0x1FE1 JUMPI PUSH1 0x0 DUP1 REVERT JUMPDEST PUSH1 0x0 JUMPDEST DUP4 DUP2 LT ISZERO PUSH2 0x2B42 JUMPI DUP2 DUP2 ADD MLOAD DUP4 DUP3 ADD MSTORE PUSH1 0x20 ADD PUSH2 0x2B2A JUMP JUMPDEST DUP4 DUP2 GT ISZERO PUSH2 0x20A0 JUMPI POP POP PUSH1 0x0 SWAP2 ADD MSTORE JUMP JUMPDEST PUSH1 0x0 DUP3 MLOAD PUSH2 0x2B65 DUP2 DUP5 PUSH1 0x20 DUP8 ADD PUSH2 0x2B27 JUMP JUMPDEST SWAP2 SWAP1 SWAP2 ADD SWAP3 SWAP2 POP POP JUMP JUMPDEST PUSH1 0x20 DUP2 MSTORE PUSH1 0x0 DUP3 MLOAD DUP1 PUSH1 0x20 DUP5 ADD MSTORE PUSH2 0x2B8E DUP2 PUSH1 0x40 DUP6 ADD PUSH1 0x20 DUP8 ADD PUSH2 0x2B27 JUMP JUMPDEST PUSH1 0x1F ADD PUSH1 0x1F NOT AND SWAP2 SWAP1 SWAP2 ADD PUSH1 0x40 ADD SWAP3 SWAP2 POP POP JUMP INVALID LOG2 PUSH5 0x6970667358 0x22 SLT KECCAK256 XOR 0xC SLT 0xDC RETURN 0xD4 PUSH18 0x4D3FF168E2B4BB0D0745AB767195CC35879 0xC0 GASPRICE DIV ADD SWAP5 0x2D SELFDESTRUCT PUSH5 0x736F6C6343 STOP ADDMOD 0xE STOP CALLER ",
  "sha1": "679ee6af89ffd1f83a3ec58cb2ce445c7c0d9da7",
  "source": "// SPDX-License-Identifier: MIT\n\npragma solidity ^0.8.7;\n\nimport '@openzeppelin/contracts/token/ERC20/ERC20.sol';\nimport '@openzeppelin/contracts/utils/math/SafeMath.sol';\nimport '@openzeppelin/contracts/token/ERC20/utils/SafeERC20.sol';\n\ncontract Distributor {\n    using SafeMath  for uint256;\n    using SafeERC20 for IERC20;\n\n    struct Distribution {\n        IERC20      token;\n        address     owner;\n\n        bool        isCreated;\n        bool        tokensDeposited;\n\n        uint256     amountOfTokensToDistribute;\n        uint256     totalTokensDistributed;\n    }\n\n    struct Registration {\n        uint256     datetime;\n        uint256     distributionAmount;\n        bool        isRegistered;\n    }\n\n    struct Participation {\n        uint256     datetime;\n        bool        isParticipated;\n    }\n\n    struct RegistrationRound {\n        uint256             startDate;\n        uint256             endDate;\n    }\n\n    struct DistributionRound {\n        uint256             startDate;\n        uint256             endDate;\n    }\n\n    struct Allocation {\n        address             user;\n        uint256             amount;\n    }\n\n    mapping (uint256 => address)        public indexToClaimedUsers;\n    uint256                             public claimedUsersCount;\n\n    mapping (address => Registration)   public registrations;\n    mapping (uint256 => address)        public indexToRegistrations;\n    uint256                             public registrationsCount;\n\n    mapping (address => Participation)  public participations;\n    mapping (uint256 => address)        public indexToParticipiants;\n    uint256                             public participiantsCount;\n\n    mapping (address => uint)           public addressToEvent;\n    mapping (address => bool)           public addressToWithdraw;\n\n    uint256             public registrationFee;\n    uint256             public totalRegistrationFee;\n    bool                public registrationFeeWithdrawn;\n\n    uint256             public vestingEndDate;\n    uint256             public vestingPrecision;\n    uint256             public vestingEventsCount;\n    uint256[]           public vestingPortionsUnlockTime;\n    uint256[]           public vestingPercentPerPortion;\n\n    address             public admin;\n\n    Distribution        public distribution;\n    RegistrationRound   public registrationRound;\n    DistributionRound   public distributionRound;\n\n    bool                public leftoverWithdrawn;\n\n    event UserRegistered(address indexed account, uint256 timestamp);\n    event UserParticipated(address indexed account, uint256 timestamp);\n\n    event MultipleRegistrationCompleted(uint256 timestamp);\n    event MultipleParticipationCompleted(uint256 timestamp);\n    event DistributionRoundSet(uint256 timestamp);\n    event RegistrationRoundSet(uint256 timestamp);\n    event DistributionParametersSet(uint256 timestamp);\n\n    event TokensWithdrawn(address indexed account, uint256 amount, uint256 timestamp);\n    event FeeWithdrawn(uint256 amount, uint256 timestamp);\n    event LeftoverWithdrawn(uint256 amount, uint256 timestamp);\n\n    event VestingEndDateSet(uint256 timestamp);\n    event VestingParametersSet(uint256 timestamp);\n    event AllocationsSet(address indexed account, uint256 timestamp);\n    event RegistrationFeeSet(uint256 amount, uint256 timestamp);\n\n    event TokensDeposited(uint256 amount, uint256 timestamp);\n\n    constructor(address _admin) {\n        admin = _admin;\n    }\n\n    modifier onlyAdmin() {\n        require(msg.sender == admin, 'Allows admin address only');\n        _;\n    }\n\n    modifier onlyDistributionOwner() {\n        require(msg.sender == distribution.owner, 'Allows distribution owner address only');\n        _;\n    }\n\n    modifier onlyIfRegistrationIsNotOver() {\n        require(\n            block.timestamp >= registrationRound.startDate && \n            block.timestamp <= registrationRound.endDate,\n            'Registration round is over or not started yet');\n        _;\n    }\n\n    modifier onlyIfDistributionIsNotOver() {\n        require(\n            block.timestamp >= distributionRound.startDate &&\n            block.timestamp <= distributionRound.endDate,\n            'Distribution round is over or not started yet');\n        _;\n    }\n\n    function register() public {\n        // require(registrationFee > 0, 'Registration fee is not set');\n        // require(msg.value == registrationFee, 'Registration fee amount issue');\n        // totalRegistrationFee += msg.value;\n\n        _registerUser(msg.sender);\n    }\n\n    function registerUser(address _address) public onlyIfRegistrationIsNotOver onlyAdmin {\n        _registerUser(_address);\n    }\n\n    function registerMultipleUsers(address[] memory _addresses) public onlyIfRegistrationIsNotOver onlyAdmin {\n        require(_addresses.length > 0, 'The addresses array must contain one element at least');\n\n        for (uint i = 0; i < _addresses.length; i++) {\n            if (!registrations[_addresses[i]].isRegistered) {\n                _registerUser(_addresses[i]);\n            }\n        }\n\n        emit MultipleRegistrationCompleted(block.timestamp);\n    }\n\n    function participate() public onlyIfDistributionIsNotOver {\n        _participate(msg.sender);\n    }\n\n    function participateMultipleUsers(address[] memory _addresses) public onlyIfDistributionIsNotOver onlyAdmin {\n        require(_addresses.length > 0, 'The addresses array must contain one element at least');\n\n        for (uint i = 0; i < _addresses.length; i++) {\n            if (!participations[_addresses[i]].isParticipated) {\n                _participate(_addresses[i]);\n            }\n        }\n\n        emit MultipleParticipationCompleted(block.timestamp);\n    }\n\n    function withdraw() public {\n        require(\n            vestingPercentPerPortion.length > 0 &&\n            vestingPortionsUnlockTime.length > 0,\n            'Vesting parameters are not set'\n        );\n        require(registrations[msg.sender].isRegistered, 'Address is not registered');\n        require(participations[msg.sender].isParticipated, 'Address is not participated in distribution');\n        require(!addressToWithdraw[msg.sender], 'Address has executed withdraw already');\n\n        uint256 totalToWithdraw = 0;\n        Registration storage registration = registrations[msg.sender];\n\n        require(registration.distributionAmount > 0, 'There is nothing to withdraw');\n\n        for (uint i = 0; i < vestingPortionsUnlockTime.length; i++) {\n            if (block.timestamp >= vestingPortionsUnlockTime[i]) {\n                 uint256 amountWithdrawing = registration\n                    .distributionAmount\n                    .mul(vestingPercentPerPortion[i])\n                    .div(vestingPrecision);\n\n                totalToWithdraw = totalToWithdraw.add(amountWithdrawing);\n            }\n        }\n\n        require(totalToWithdraw > 0, 'There is nothing to widthdraw');\n        \n        indexToClaimedUsers[claimedUsersCount] = msg.sender;\n        \n        addressToWithdraw[msg.sender] = true;\n        distribution.totalTokensDistributed = distribution.totalTokensDistributed.add(totalToWithdraw);\n\n        distribution.token.safeTransfer(msg.sender, totalToWithdraw);\n        \n        emit TokensWithdrawn(msg.sender, totalToWithdraw, block.timestamp);\n    }\n\n    // function withdrawEvent() public {\n    //     require(vestingEventsCount > 0, 'Vesting parameters are not set');\n    //     require(!addressToWithdraw[msg.sender], 'Address already widthdrawn');\n\n    //     uint256 totalToWithdraw = 0;\n    //     Registration storage registration = registrations[msg.sender];\n\n    //     require(registration.distributionAmount > 0, 'There is nothing to withdraw');\n        \n    //     uint addressEvent = addressToEvent[msg.sender];\n    //     for (uint i = 0; i < addressEvent; i++) {\n    //         uint256 amountWithdrawing = registration\n    //             .distributionAmount\n    //             .mul(vestingPercentPerPortion[i])\n    //             .div(vestingPrecision);\n\n    //         registration.distributionAmount = registration.distributionAmount.sub(amountWithdrawing);\n    //         totalToWithdraw = totalToWithdraw.add(amountWithdrawing);\n    //     }\n\n    //     require(totalToWithdraw > 0, 'There is nothing to widthdraw');\n\n    //     addressToWithdraw[msg.sender] = true;\n    //     distribution.totalTokensDistributed = distribution.totalTokensDistributed.add(totalToWithdraw);\n\n    //     distribution.token.safeTransfer(msg.sender, totalToWithdraw);\n        \n    //     emit TokensWithdrawn(msg.sender, totalToWithdraw, block.timestamp);\n    // }\n\n    // function setEventVestingParams(\n    //     uint256 _eventsCount,\n    //     uint256[] memory _percents\n    // ) public onlyAdmin {\n    //     require(_eventsCount == _percents.length, 'Events could must be equal with Percept Per Portion length');\n    //     require(distribution.isCreated, 'Distribution is not created');\n\n    //     vestingEventsCount = _eventsCount;\n\n    //     uint256 precision = 0;\n    //     for (uint256 i = 0; i < _eventsCount; i++) {\n    //         vestingPercentPerPortion.push(_percents[i]);\n    //         precision = precision.add(_percents[i]);\n    //     }\n\n    //     require(vestingPrecision == precision, 'Precision percents issue');\n\n    //     emit VestingParametersSet(block.timestamp);\n    // }\n\n    function setVestingParams(\n        uint256[] memory _unlockingTimes,\n        uint256[] memory _percents\n    ) public onlyAdmin {\n        require(\n            vestingPercentPerPortion.length == 0 &&\n            vestingPortionsUnlockTime.length == 0,\n            'Vesting parameters already set'\n        );\n        require(_unlockingTimes.length == _percents.length, 'Unlocking Times length must be equal with Percent Per Portion length');\n        require(distribution.isCreated, 'Distribution is not created');\n        require(_unlockingTimes[0] > distributionRound.endDate, 'Unlock time must be after the distribution ends');\n\n        uint256 precision = 0;\n        for (uint256 i = 0; i < _unlockingTimes.length; i++) {\n            if (i > 0) {\n                require(_unlockingTimes[i] > _unlockingTimes[i - 1], 'Unlock time must be greater than previous');\n            }\n\n            vestingPortionsUnlockTime.push(_unlockingTimes[i]);\n            vestingPercentPerPortion.push(_percents[i]);\n\n            precision = precision.add(_percents[i]);\n        }\n        \n        require(vestingPrecision == precision, 'Precision percents issue');\n\n        emit VestingParametersSet(block.timestamp);\n    }\n\n    function setMultipleAddressDistributionAmount(Allocation[] memory _allocations) public onlyAdmin {\n        require(_allocations.length > 0, 'The allocation array must contain one element at least');\n\n        for (uint i = 0; i < _allocations.length; i++) {\n            Allocation memory allocation = _allocations[i];\n            _setAddressDistributionAmount(allocation.user, allocation.amount);\n        }\n    }\n\n    function setAddressDistributionAmount(address _address, uint256 _amount) public onlyAdmin {\n        _setAddressDistributionAmount(_address, _amount);\n    }\n\n    function setDistributionParameters(\n        uint256 _amountOfTokensToDistribute,\n        uint256 _vestingPrecision,\n        address _owner,\n        address _token\n    ) public onlyAdmin {\n        require(!distribution.isCreated, 'Distribution already created');\n\n        distribution.token = IERC20(_token);\n        distribution.owner = _owner;\n        distribution.amountOfTokensToDistribute = _amountOfTokensToDistribute;\n\n        vestingPrecision = _vestingPrecision;\n\n        distribution.isCreated = true;\n\n        emit DistributionParametersSet(block.timestamp);\n    }\n\n    function setRegistrationRound(uint256 _startDate, uint256 _endDate) public onlyAdmin {\n        require(\n            _startDate >= block.timestamp &&\n            _endDate > _startDate\n        );\n\n        registrationRound.startDate = _startDate;\n        registrationRound.endDate = _endDate;\n\n        emit RegistrationRoundSet(block.timestamp);\n    }\n\n    function setDistributionRound(uint256 _startDate, uint256 _endDate) public onlyAdmin {\n        require(distribution.isCreated, 'Distribution parameters are not set');\n        require(_startDate > registrationRound.endDate, 'Distribution round must be later than registration round');\n\n        distributionRound = DistributionRound({\n            startDate: _startDate,\n            endDate: _endDate\n        });\n\n        emit DistributionRoundSet(block.timestamp);\n    }\n\n    function setVestingEndDate(uint256 _endDate) public onlyAdmin {\n        require(\n            vestingPercentPerPortion.length > 0 &&\n            vestingPortionsUnlockTime.length > 0,\n            'Vesting parameters are not set'\n        );\n        require(\n            _endDate > vestingPortionsUnlockTime[vestingPortionsUnlockTime.length - 1],\n            'The last day of the distribution must be later than the last unlock time'\n        );\n\n        vestingEndDate = _endDate;\n\n        emit VestingEndDateSet(block.timestamp);\n    }\n\n    function getRegisteredUsers() public view returns (address[] memory) {\n        address[] memory addresses = new address[](registrationsCount);\n\n        for (uint i = 0; i < registrationsCount; i++) {\n            address registrationAddress = indexToRegistrations[i];\n            addresses[i] = registrationAddress;\n        }\n\n        return addresses;\n    }\n\n    function getParticipatedUsers() public view returns (address[] memory) {\n        address[] memory addresses = new address[](participiantsCount);\n\n        for (uint i = 0; i < participiantsCount; i++) {\n            address participiantsAddress = indexToParticipiants[i];\n            addresses[i] = participiantsAddress;\n        }\n\n        return addresses;\n    }\n\n    function getClaimedUsers() public view returns (address[] memory) {\n        address[] memory addresses = new address[](claimedUsersCount);\n\n        for (uint i = 0; i < claimedUsersCount; i++) {\n            address claimedUserAddress = indexToClaimedUsers[i];\n            addresses[i] = claimedUserAddress;\n        }\n\n        return addresses;\n    }\n\n    function getVestingPortions() public view returns (uint256[] memory) {\n        return vestingPercentPerPortion;\n    }\n\n    function getVestingUnlocks() public view returns (uint256[] memory) {\n        return vestingPortionsUnlockTime;\n    }\n\n    // function setAddressEvent(address _address, uint _event) public onlyDistributionOwner {\n    //    addressToEvent[_address] = _event;\n    // }\n\n    function setRegistrationFee(uint256 _feeAmount) public onlyAdmin {\n        require(\n            block.timestamp < registrationRound.startDate, \n            'Set registration fee is not possible while registration round is running');\n\n        registrationFee = _feeAmount;   \n\n        emit RegistrationFeeSet(_feeAmount, block.timestamp);\n    }\n\n    function depositTokens() public onlyDistributionOwner {\n        require(distribution.isCreated, 'Distribution is not created');\n        require(!distribution.tokensDeposited, 'Tokens has been deposited already');\n\n        distribution.tokensDeposited = true;\n\n        distribution.token.safeTransferFrom(\n            msg.sender,\n            address(this),\n            distribution.amountOfTokensToDistribute\n        );\n\n        emit TokensDeposited(distribution.amountOfTokensToDistribute, block.timestamp);\n    }\n\n    function withdrawLeftover() public onlyAdmin {\n        require(vestingEndDate > 0, 'Vesting end date is not set');\n        require(block.timestamp >= vestingEndDate, 'Vesting period is not finished yet');\n        require(!leftoverWithdrawn, 'Leftover already withdrawn');\n\n        uint256 leftover = distribution.amountOfTokensToDistribute.sub(distribution.totalTokensDistributed);\n        require(leftover > 0, 'There is nothing to withdraw');\n        \n        leftoverWithdrawn = true;\n        \n        distribution.token.safeTransfer(msg.sender, leftover);\n\n        emit LeftoverWithdrawn(leftover, block.timestamp);\n    }\n\n    function withdrawFee() public onlyAdmin {\n        require(block.timestamp >= registrationRound.endDate, 'Registration round is not finished yet');\n        require(!registrationFeeWithdrawn, 'Registration fee already withdrawn');\n        require(totalRegistrationFee > 0, 'There is nothing to withdraw');\n        \n        registrationFeeWithdrawn = true;\n        \n        payable(msg.sender).transfer(totalRegistrationFee);\n\n        totalRegistrationFee = 0;\n\n        emit FeeWithdrawn(totalRegistrationFee, block.timestamp);\n    }\n\n    function _setAddressDistributionAmount(address _address, uint256 _amount) private {\n        require(registrations[_address].isRegistered, 'Provided address is not registered');\n\n        registrations[_address].distributionAmount = _amount;\n\n        emit AllocationsSet(_address, block.timestamp);\n    }\n\n    function _registerUser(address _address) private {\n        // require(!registrations[_address].isRegistered, 'Address already registered');\n        \n        registrations[_address] = Registration(block.timestamp, 0, true);\n        indexToRegistrations[registrationsCount] = _address;\n        registrationsCount++;\n\n        emit UserRegistered(_address, block.timestamp);\n    }\n\n    function _participate(address _address) private {\n        require(!participations[_address].isParticipated, 'Address already participated');\n        \n        participations[_address] = Participation(block.timestamp, true);\n        indexToParticipiants[participiantsCount] = _address;\n        participiantsCount++;\n\n        emit UserParticipated(_address, block.timestamp);\n    }\n}\n",
  "sourcePath": "contracts/Distributor.sol",
  "type": "contract"
}